{
  "contractName": "call",
  "abi": [
    {
      "inputs": [
        {
          "internalType": "uint256",
          "name": "_strike",
          "type": "uint256"
        },
        {
          "internalType": "uint256",
          "name": "_maturity",
          "type": "uint256"
        },
        {
          "internalType": "address payable",
          "name": "_holder",
          "type": "address"
        },
        {
          "internalType": "address",
          "name": "_oracleAddress",
          "type": "address"
        }
      ],
      "payable": true,
      "stateMutability": "payable",
      "type": "constructor"
    },
    {
      "constant": false,
      "inputs": [],
      "name": "exercize",
      "outputs": [],
      "payable": false,
      "stateMutability": "nonpayable",
      "type": "function"
    },
    {
      "constant": false,
      "inputs": [],
      "name": "reclaim",
      "outputs": [],
      "payable": false,
      "stateMutability": "nonpayable",
      "type": "function"
    },
    {
      "constant": true,
      "inputs": [],
      "name": "balance",
      "outputs": [
        {
          "internalType": "uint256",
          "name": "",
          "type": "uint256"
        }
      ],
      "payable": false,
      "stateMutability": "view",
      "type": "function"
    },
    {
      "constant": true,
      "inputs": [],
      "name": "height",
      "outputs": [
        {
          "internalType": "uint256",
          "name": "",
          "type": "uint256"
        }
      ],
      "payable": false,
      "stateMutability": "view",
      "type": "function"
    },
    {
      "constant": true,
      "inputs": [],
      "name": "oracleVal",
      "outputs": [
        {
          "internalType": "uint256",
          "name": "",
          "type": "uint256"
        }
      ],
      "payable": false,
      "stateMutability": "view",
      "type": "function"
    }
  ],
  "bytecode": "0x60806040526040516106573803806106578339818101604052608081101561002657600080fd5b810190808051906020019092919080519060200190929190805190602001909291908051906020019092919050505060015460020234118015610078575061007261016460201b60201c565b60020234115b61008157600080fd5b670de0b6b3a764000084026001819055508260028190555081600460006101000a81548173ffffffffffffffffffffffffffffffffffffffff021916908373ffffffffffffffffffffffffffffffffffffffff160217905550806000806101000a81548173ffffffffffffffffffffffffffffffffffffffff021916908373ffffffffffffffffffffffffffffffffffffffff16021790555033600360006101000a81548173ffffffffffffffffffffffffffffffffffffffff021916908373ffffffffffffffffffffffffffffffffffffffff16021790555050505050610212565b6000806000809054906101000a900473ffffffffffffffffffffffffffffffffffffffff1690508073ffffffffffffffffffffffffffffffffffffffff16636d4ce63c6040518163ffffffff1660e01b815260040160206040518083038186803b1580156101d157600080fd5b505afa1580156101e5573d6000803e3d6000fd5b505050506040513d60208110156101fb57600080fd5b810190808051906020019092919050505091505090565b610436806102216000396000f3fe608060405234801561001057600080fd5b50600436106100575760003560e01c80630ef267431461005c578063309d83601461007a57806380e9071b14610098578063b69ef8a8146100a2578063d3f10706146100c0575b600080fd5b6100646100ca565b6040518082815260200191505060405180910390f35b6100826100d2565b6040518082815260200191505060405180910390f35b6100a0610180565b005b6100aa610269565b6040518082815260200191505060405180910390f35b6100c8610288565b005b600043905090565b6000806000809054906101000a900473ffffffffffffffffffffffffffffffffffffffff1690508073ffffffffffffffffffffffffffffffffffffffff16636d4ce63c6040518163ffffffff1660e01b815260040160206040518083038186803b15801561013f57600080fd5b505afa158015610153573d6000803e3d6000fd5b505050506040513d602081101561016957600080fd5b810190808051906020019092919050505091505090565b600360009054906101000a900473ffffffffffffffffffffffffffffffffffffffff1673ffffffffffffffffffffffffffffffffffffffff163373ffffffffffffffffffffffffffffffffffffffff161480156101de575060025443115b6101e757600080fd5b600360009054906101000a900473ffffffffffffffffffffffffffffffffffffffff1673ffffffffffffffffffffffffffffffffffffffff166108fc3073ffffffffffffffffffffffffffffffffffffffff16319081150290604051600060405180830381858888f19350505050158015610266573d6000803e3d6000fd5b50565b60003073ffffffffffffffffffffffffffffffffffffffff1631905090565b600460009054906101000a900473ffffffffffffffffffffffffffffffffffffffff1673ffffffffffffffffffffffffffffffffffffffff163373ffffffffffffffffffffffffffffffffffffffff161480156102e757506002544311155b6102f057600080fd5b6000670de0b6b3a76400006103036100d2565b0290506001548111156103fe57600460009054906101000a900473ffffffffffffffffffffffffffffffffffffffff1673ffffffffffffffffffffffffffffffffffffffff166108fc60015483039081150290604051600060405180830381858888f1935050505015801561037c573d6000803e3d6000fd5b50600360009054906101000a900473ffffffffffffffffffffffffffffffffffffffff1673ffffffffffffffffffffffffffffffffffffffff166108fc3073ffffffffffffffffffffffffffffffffffffffff16319081150290604051600060405180830381858888f193505050501580156103fc573d6000803e3d6000fd5b505b5056fea265627a7a72315820405ecc6e7b5b8a19b7a0904d871a4c78896d214a158ceefb78ebd7d8459dbebd64736f6c634300050c0032",
  "source": "pragma solidity ^0.5.12;\n\nimport \"./oracle.sol\";\n\ncontract call {\n    address oracleAddress;\n    \n    uint strike;\n    uint maturity;\n    \n    address payable debtor;\n    address payable holder;\n    \n    modifier onlyDebtor(){\n        require(msg.sender == debtor && block.number > maturity);\n        _;\n    }\n    \n    modifier onlyHolder() {\n        require(msg.sender == holder && block.number <= maturity);\n        _;\n    }\n    \n    constructor(uint _strike, uint _maturity, address payable _holder, address _oracleAddress) public payable {\n        //require colatteral for exchange\n        require(msg.value > 2*strike && msg.value > 2*oracleVal());\n        strike = _strike * (1 ether);\n        maturity = _maturity;\n        holder = _holder;\n        oracleAddress = _oracleAddress;\n        debtor = msg.sender;\n    }\n    \n    function exercize() public onlyHolder{\n        uint btceth = oracleVal() * (1 ether);\n        if (btceth > strike){\n            holder.transfer(btceth-strike);\n            debtor.transfer(address(this).balance);\n        }\n    }\n    \n    function reclaim() public onlyDebtor{\n        debtor.transfer(address(this).balance);\n    }\n    \n    \n    function balance() public view returns(uint){\n        return address(this).balance;\n    }\n    \n    function height() public view returns(uint){\n        return block.number;\n    }\n    \n    function oracleVal() public view returns(uint){\n        oracle temp = oracle(oracleAddress);\n        return temp.get();\n    }\n}",
  "sourcePath": "/home/chimi/Desktop/truffleWorkspace/call1/contracts/call.sol",
  "compiler": {
    "name": "solc",
    "version": "0.5.12+commit.7709ece9.Emscripten.clang"
  },
  "schemaVersion": "3.0.18",
  "updatedAt": "2019-11-25T04:03:24.317Z",
  "devdoc": {
    "methods": {}
  },
  "userdoc": {
    "methods": {}
  }
}