{
  "contractName": "calls",
  "abi": [
    {
      "inputs": [
        {
          "internalType": "address",
          "name": "_oracleAddress",
          "type": "address"
        },
        {
          "internalType": "address",
          "name": "_dappAddress",
          "type": "address"
        }
      ],
      "payable": false,
      "stateMutability": "nonpayable",
      "type": "constructor"
    },
    {
      "constant": true,
      "inputs": [
        {
          "internalType": "bytes32",
          "name": "",
          "type": "bytes32"
        }
      ],
      "name": "allCalls",
      "outputs": [
        {
          "internalType": "address payable",
          "name": "debtor",
          "type": "address"
        },
        {
          "internalType": "address payable",
          "name": "holder",
          "type": "address"
        },
        {
          "internalType": "uint256",
          "name": "maturity",
          "type": "uint256"
        },
        {
          "internalType": "uint256",
          "name": "strike",
          "type": "uint256"
        },
        {
          "internalType": "uint256",
          "name": "timestamp",
          "type": "uint256"
        },
        {
          "internalType": "uint256",
          "name": "amount",
          "type": "uint256"
        }
      ],
      "payable": false,
      "stateMutability": "view",
      "type": "function"
    },
    {
      "constant": false,
      "inputs": [
        {
          "internalType": "address payable",
          "name": "_debtor",
          "type": "address"
        },
        {
          "internalType": "address payable",
          "name": "_holder",
          "type": "address"
        },
        {
          "internalType": "uint256",
          "name": "_maturity",
          "type": "uint256"
        },
        {
          "internalType": "uint256",
          "name": "_strike",
          "type": "uint256"
        },
        {
          "internalType": "uint256",
          "name": "_amount",
          "type": "uint256"
        }
      ],
      "name": "mint",
      "outputs": [
        {
          "internalType": "bool",
          "name": "success",
          "type": "bool"
        }
      ],
      "payable": false,
      "stateMutability": "nonpayable",
      "type": "function"
    },
    {
      "constant": false,
      "inputs": [
        {
          "internalType": "bytes32",
          "name": "_hash",
          "type": "bytes32"
        }
      ],
      "name": "exercize",
      "outputs": [],
      "payable": false,
      "stateMutability": "nonpayable",
      "type": "function"
    },
    {
      "constant": false,
      "inputs": [
        {
          "internalType": "uint256",
          "name": "_index",
          "type": "uint256"
        }
      ],
      "name": "exercizeIndex",
      "outputs": [],
      "payable": false,
      "stateMutability": "nonpayable",
      "type": "function"
    },
    {
      "constant": false,
      "inputs": [
        {
          "internalType": "bytes32",
          "name": "_hash",
          "type": "bytes32"
        }
      ],
      "name": "reclaim",
      "outputs": [],
      "payable": false,
      "stateMutability": "nonpayable",
      "type": "function"
    },
    {
      "constant": false,
      "inputs": [
        {
          "internalType": "uint256",
          "name": "_index",
          "type": "uint256"
        }
      ],
      "name": "reclaimIndex",
      "outputs": [],
      "payable": false,
      "stateMutability": "nonpayable",
      "type": "function"
    },
    {
      "constant": true,
      "inputs": [],
      "name": "myContracts",
      "outputs": [
        {
          "internalType": "bytes32[]",
          "name": "",
          "type": "bytes32[]"
        }
      ],
      "payable": false,
      "stateMutability": "view",
      "type": "function"
    },
    {
      "constant": true,
      "inputs": [
        {
          "internalType": "uint256",
          "name": "_index",
          "type": "uint256"
        }
      ],
      "name": "contractAtIndex",
      "outputs": [
        {
          "internalType": "bytes32",
          "name": "",
          "type": "bytes32"
        }
      ],
      "payable": false,
      "stateMutability": "view",
      "type": "function"
    },
    {
      "constant": true,
      "inputs": [],
      "name": "contractBalance",
      "outputs": [
        {
          "internalType": "uint256",
          "name": "",
          "type": "uint256"
        }
      ],
      "payable": false,
      "stateMutability": "view",
      "type": "function"
    },
    {
      "constant": true,
      "inputs": [],
      "name": "oracleVal",
      "outputs": [
        {
          "internalType": "uint256",
          "name": "",
          "type": "uint256"
        }
      ],
      "payable": false,
      "stateMutability": "view",
      "type": "function"
    }
  ],
  "bytecode": "0x608060405234801561001057600080fd5b506040516121793803806121798339818101604052604081101561003357600080fd5b810190808051906020019092919080519060200190929190505050816000806101000a81548173ffffffffffffffffffffffffffffffffffffffff021916908373ffffffffffffffffffffffffffffffffffffffff16021790555080600160006101000a81548173ffffffffffffffffffffffffffffffffffffffff021916908373ffffffffffffffffffffffffffffffffffffffff1602179055506000600160009054906101000a900473ffffffffffffffffffffffffffffffffffffffff1690508073ffffffffffffffffffffffffffffffffffffffff1663e6de9f316040518163ffffffff1660e01b815260040160206040518083038186803b15801561013c57600080fd5b505afa158015610150573d6000803e3d6000fd5b505050506040513d602081101561016657600080fd5b8101908080519060200190929190505050600281905550505050611fea8061018f6000396000f3fe608060405234801561001057600080fd5b506004361061009e5760003560e01c80636c1b6c96116100665780636c1b6c96146101aa5780638b7afe2e146102675780639256b3711461028557806396afb365146102c75780639ceeaca7146102f55761009e565b80630f85eded146100a357806318436dc1146100d1578063309d83601461013057806340e2de8b1461014e5780634ed936b71461017c575b600080fd5b6100cf600480360360208110156100b957600080fd5b810190808035906020019092919050505061038f565b005b6100d9610911565b6040518080602001828103825283818151815260200191508051906020019060200280838360005b8381101561011c578082015181840152602081019050610101565b505050509050019250505060405180910390f35b6101386109a6565b6040518082815260200191505060405180910390f35b61017a6004803603602081101561016457600080fd5b8101908080359060200190929190505050610a54565b005b6101a86004803603602081101561019257600080fd5b8101908080359060200190929190505050610f2e565b005b6101d6600480360360208110156101c057600080fd5b8101908080359060200190929190505050611332565b604051808773ffffffffffffffffffffffffffffffffffffffff1673ffffffffffffffffffffffffffffffffffffffff1681526020018673ffffffffffffffffffffffffffffffffffffffff1673ffffffffffffffffffffffffffffffffffffffff168152602001858152602001848152602001838152602001828152602001965050505050505060405180910390f35b61026f6113ae565b6040518082815260200191505060405180910390f35b6102b16004803603602081101561029b57600080fd5b81019080803590602001909291905050506113cd565b6040518082815260200191505060405180910390f35b6102f3600480360360208110156102dd57600080fd5b8101908080359060200190929190505050611479565b005b610375600480360360a081101561030b57600080fd5b81019080803573ffffffffffffffffffffffffffffffffffffffff169060200190929190803573ffffffffffffffffffffffffffffffffffffffff1690602001909291908035906020019092919080359060200190929190803590602001909291905050506117d5565b604051808215151515815260200191505060405180910390f35b6000600160009054906101000a900473ffffffffffffffffffffffffffffffffffffffff169050600460003373ffffffffffffffffffffffffffffffffffffffff1673ffffffffffffffffffffffffffffffffffffffff16815260200190815260200160002080549050821061040457600080fd5b6000600460003373ffffffffffffffffffffffffffffffffffffffff1673ffffffffffffffffffffffffffffffffffffffff168152602001908152602001600020838154811061045057fe5b90600052602060002001549050600060025461046a6109a6565b0290506003600083815260200190815260200160002060010160009054906101000a900473ffffffffffffffffffffffffffffffffffffffff1673ffffffffffffffffffffffffffffffffffffffff163373ffffffffffffffffffffffffffffffffffffffff161480156104f4575060036000838152602001908152602001600020600201544311155b80156105155750600360008381526020019081526020016000206003015481115b61051e57600080fd5b60008160036000858152602001908152602001600020600301548303600254600360008781526020019081526020016000206005015402028161055d57fe5b0490508373ffffffffffffffffffffffffffffffffffffffff1663e1ad11626003600086815260200190815260200160002060010160009054906101000a900473ffffffffffffffffffffffffffffffffffffffff168360006040518463ffffffff1660e01b8152600401808473ffffffffffffffffffffffffffffffffffffffff1673ffffffffffffffffffffffffffffffffffffffff168152602001838152602001821515151581526020019350505050602060405180830381600087803b15801561062a57600080fd5b505af115801561063e573d6000803e3d6000fd5b505050506040513d602081101561065457600080fd5b8101908080519060200190929190505050508373ffffffffffffffffffffffffffffffffffffffff1663e1ad11626003600086815260200190815260200160002060000160009054906101000a900473ffffffffffffffffffffffffffffffffffffffff16836003600088815260200190815260200160002060050154600254020360006040518463ffffffff1660e01b8152600401808473ffffffffffffffffffffffffffffffffffffffff1673ffffffffffffffffffffffffffffffffffffffff168152602001838152602001821515151581526020019350505050602060405180830381600087803b15801561074c57600080fd5b505af1158015610760573d6000803e3d6000fd5b505050506040513d602081101561077657600080fd5b8101908080519060200190929190505050506108076003600085815260200190815260200160002060010160009054906101000a900473ffffffffffffffffffffffffffffffffffffffff166108026003600087815260200190815260200160002060010160009054906101000a900473ffffffffffffffffffffffffffffffffffffffff1686611b6a565b611c36565b6108866003600085815260200190815260200160002060000160009054906101000a900473ffffffffffffffffffffffffffffffffffffffff166108816003600087815260200190815260200160002060000160009054906101000a900473ffffffffffffffffffffffffffffffffffffffff1686611b6a565b611c36565b60036000848152602001908152602001600020600080820160006101000a81549073ffffffffffffffffffffffffffffffffffffffff02191690556001820160006101000a81549073ffffffffffffffffffffffffffffffffffffffff0219169055600282016000905560038201600090556004820160009055600582016000905550505050505050565b6060600460003373ffffffffffffffffffffffffffffffffffffffff1673ffffffffffffffffffffffffffffffffffffffff16815260200190815260200160002080548060200260200160405190810160405280929190818152602001828054801561099c57602002820191906000526020600020905b815481526020019060010190808311610988575b5050505050905090565b6000806000809054906101000a900473ffffffffffffffffffffffffffffffffffffffff1690508073ffffffffffffffffffffffffffffffffffffffff16636d4ce63c6040518163ffffffff1660e01b815260040160206040518083038186803b158015610a1357600080fd5b505afa158015610a27573d6000803e3d6000fd5b505050506040513d6020811015610a3d57600080fd5b810190808051906020019092919050505091505090565b6000600160009054906101000a900473ffffffffffffffffffffffffffffffffffffffff1690506000600254610a886109a6565b0290506003600084815260200190815260200160002060010160009054906101000a900473ffffffffffffffffffffffffffffffffffffffff1673ffffffffffffffffffffffffffffffffffffffff163373ffffffffffffffffffffffffffffffffffffffff16148015610b12575060036000848152602001908152602001600020600201544311155b8015610b335750600360008481526020019081526020016000206003015481115b610b3c57600080fd5b600081600360008681526020019081526020016000206003015483036002546003600088815260200190815260200160002060050154020281610b7b57fe5b0490508273ffffffffffffffffffffffffffffffffffffffff1663e1ad11626003600087815260200190815260200160002060010160009054906101000a900473ffffffffffffffffffffffffffffffffffffffff168360006040518463ffffffff1660e01b8152600401808473ffffffffffffffffffffffffffffffffffffffff1673ffffffffffffffffffffffffffffffffffffffff168152602001838152602001821515151581526020019350505050602060405180830381600087803b158015610c4857600080fd5b505af1158015610c5c573d6000803e3d6000fd5b505050506040513d6020811015610c7257600080fd5b8101908080519060200190929190505050508273ffffffffffffffffffffffffffffffffffffffff1663e1ad11626003600087815260200190815260200160002060000160009054906101000a900473ffffffffffffffffffffffffffffffffffffffff1683600254600360008a815260200190815260200160002060050154020360006040518463ffffffff1660e01b8152600401808473ffffffffffffffffffffffffffffffffffffffff1673ffffffffffffffffffffffffffffffffffffffff168152602001838152602001821515151581526020019350505050602060405180830381600087803b158015610d6a57600080fd5b505af1158015610d7e573d6000803e3d6000fd5b505050506040513d6020811015610d9457600080fd5b810190808051906020019092919050505050610e256003600086815260200190815260200160002060010160009054906101000a900473ffffffffffffffffffffffffffffffffffffffff16610e206003600088815260200190815260200160002060010160009054906101000a900473ffffffffffffffffffffffffffffffffffffffff1687611b6a565b611c36565b610ea46003600086815260200190815260200160002060000160009054906101000a900473ffffffffffffffffffffffffffffffffffffffff16610e9f6003600088815260200190815260200160002060000160009054906101000a900473ffffffffffffffffffffffffffffffffffffffff1687611b6a565b611c36565b60036000858152602001908152602001600020600080820160006101000a81549073ffffffffffffffffffffffffffffffffffffffff02191690556001820160006101000a81549073ffffffffffffffffffffffffffffffffffffffff02191690556002820160009055600382016000905560048201600090556005820160009055505050505050565b6000600160009054906101000a900473ffffffffffffffffffffffffffffffffffffffff169050600460003373ffffffffffffffffffffffffffffffffffffffff1673ffffffffffffffffffffffffffffffffffffffff168152602001908152602001600020805490508210610fa357600080fd5b6000600460003373ffffffffffffffffffffffffffffffffffffffff1673ffffffffffffffffffffffffffffffffffffffff1681526020019081526020016000208381548110610fef57fe5b906000526020600020015490506003600082815260200190815260200160002060000160009054906101000a900473ffffffffffffffffffffffffffffffffffffffff1673ffffffffffffffffffffffffffffffffffffffff163373ffffffffffffffffffffffffffffffffffffffff161480156110825750600360008281526020019081526020016000206002015443115b61108b57600080fd5b8173ffffffffffffffffffffffffffffffffffffffff1663e1ad11626003600084815260200190815260200160002060000160009054906101000a900473ffffffffffffffffffffffffffffffffffffffff1660036000858152602001908152602001600020600501546002540260006040518463ffffffff1660e01b8152600401808473ffffffffffffffffffffffffffffffffffffffff1673ffffffffffffffffffffffffffffffffffffffff168152602001838152602001821515151581526020019350505050602060405180830381600087803b15801561116f57600080fd5b505af1158015611183573d6000803e3d6000fd5b505050506040513d602081101561119957600080fd5b81019080805190602001909291905050505061122a6003600083815260200190815260200160002060010160009054906101000a900473ffffffffffffffffffffffffffffffffffffffff166112256003600085815260200190815260200160002060010160009054906101000a900473ffffffffffffffffffffffffffffffffffffffff1684611b6a565b611c36565b6112a96003600083815260200190815260200160002060000160009054906101000a900473ffffffffffffffffffffffffffffffffffffffff166112a46003600085815260200190815260200160002060000160009054906101000a900473ffffffffffffffffffffffffffffffffffffffff1684611b6a565b611c36565b60036000828152602001908152602001600020600080820160006101000a81549073ffffffffffffffffffffffffffffffffffffffff02191690556001820160006101000a81549073ffffffffffffffffffffffffffffffffffffffff021916905560028201600090556003820160009055600482016000905560058201600090555050505050565b60036020528060005260406000206000915090508060000160009054906101000a900473ffffffffffffffffffffffffffffffffffffffff16908060010160009054906101000a900473ffffffffffffffffffffffffffffffffffffffff16908060020154908060030154908060040154908060050154905086565b60003073ffffffffffffffffffffffffffffffffffffffff1631905090565b6000600460003373ffffffffffffffffffffffffffffffffffffffff1673ffffffffffffffffffffffffffffffffffffffff16815260200190815260200160002080549050821061141d57600080fd5b600460003373ffffffffffffffffffffffffffffffffffffffff1673ffffffffffffffffffffffffffffffffffffffff168152602001908152602001600020828154811061146757fe5b90600052602060002001549050919050565b6000600160009054906101000a900473ffffffffffffffffffffffffffffffffffffffff1690506003600083815260200190815260200160002060000160009054906101000a900473ffffffffffffffffffffffffffffffffffffffff1673ffffffffffffffffffffffffffffffffffffffff163373ffffffffffffffffffffffffffffffffffffffff161480156115265750600360008381526020019081526020016000206002015443115b61152f57600080fd5b8073ffffffffffffffffffffffffffffffffffffffff1663e1ad11626003600085815260200190815260200160002060000160009054906101000a900473ffffffffffffffffffffffffffffffffffffffff1660036000868152602001908152602001600020600501546002540260006040518463ffffffff1660e01b8152600401808473ffffffffffffffffffffffffffffffffffffffff1673ffffffffffffffffffffffffffffffffffffffff168152602001838152602001821515151581526020019350505050602060405180830381600087803b15801561161357600080fd5b505af1158015611627573d6000803e3d6000fd5b505050506040513d602081101561163d57600080fd5b8101908080519060200190929190505050506116ce6003600084815260200190815260200160002060010160009054906101000a900473ffffffffffffffffffffffffffffffffffffffff166116c96003600086815260200190815260200160002060010160009054906101000a900473ffffffffffffffffffffffffffffffffffffffff1685611b6a565b611c36565b61174d6003600084815260200190815260200160002060000160009054906101000a900473ffffffffffffffffffffffffffffffffffffffff166117486003600086815260200190815260200160002060000160009054906101000a900473ffffffffffffffffffffffffffffffffffffffff1685611b6a565b611c36565b60036000838152602001908152602001600020600080820160006101000a81549073ffffffffffffffffffffffffffffffffffffffff02191690556001820160006101000a81549073ffffffffffffffffffffffffffffffffffffffff0219169055600282016000905560038201600090556004820160009055600582016000905550505050565b60008473ffffffffffffffffffffffffffffffffffffffff168673ffffffffffffffffffffffffffffffffffffffff16141561181057600080fd5b6000600160009054906101000a900473ffffffffffffffffffffffffffffffffffffffff1690508073ffffffffffffffffffffffffffffffffffffffff16636f2293ab3330866002540260006040518563ffffffff1660e01b8152600401808573ffffffffffffffffffffffffffffffffffffffff1673ffffffffffffffffffffffffffffffffffffffff1681526020018473ffffffffffffffffffffffffffffffffffffffff1673ffffffffffffffffffffffffffffffffffffffff16815260200183815260200182151515158152602001945050505050602060405180830381600087803b15801561190357600080fd5b505af1158015611917573d6000803e3d6000fd5b505050506040513d602081101561192d57600080fd5b810190808051906020019092919050505061194757600080fd5b61194f611f02565b6040518060c001604052808973ffffffffffffffffffffffffffffffffffffffff1681526020018873ffffffffffffffffffffffffffffffffffffffff1681526020018781526020016002548702815260200142815260200185815250905060006119b982611e3b565b9050816003600083815260200190815260200160002060008201518160000160006101000a81548173ffffffffffffffffffffffffffffffffffffffff021916908373ffffffffffffffffffffffffffffffffffffffff16021790555060208201518160010160006101000a81548173ffffffffffffffffffffffffffffffffffffffff021916908373ffffffffffffffffffffffffffffffffffffffff16021790555060408201518160020155606082015181600301556080820151816004015560a08201518160050155905050600460008a73ffffffffffffffffffffffffffffffffffffffff1673ffffffffffffffffffffffffffffffffffffffff168152602001908152602001600020819080600181540180825580915050906001820390600052602060002001600090919290919091505550600460008973ffffffffffffffffffffffffffffffffffffffff1673ffffffffffffffffffffffffffffffffffffffff1681526020019081526020016000208190806001815401808255809150509060018203906000526020600020016000909192909190915055506001935050505095945050505050565b600080600090505b600460008573ffffffffffffffffffffffffffffffffffffffff1673ffffffffffffffffffffffffffffffffffffffff16815260200190815260200160002080549050811015611c2e5782600460008673ffffffffffffffffffffffffffffffffffffffff1673ffffffffffffffffffffffffffffffffffffffff1681526020019081526020016000208281548110611c0757fe5b90600052602060002001541415611c215780915050611c30565b8080600101915050611b72565b505b92915050565b60008190505b6001600460008573ffffffffffffffffffffffffffffffffffffffff1673ffffffffffffffffffffffffffffffffffffffff1681526020019081526020016000208054905003811015611d4657600460008473ffffffffffffffffffffffffffffffffffffffff1673ffffffffffffffffffffffffffffffffffffffff1681526020019081526020016000206001820181548110611cd657fe5b9060005260206000200154600460008573ffffffffffffffffffffffffffffffffffffffff1673ffffffffffffffffffffffffffffffffffffffff1681526020019081526020016000208281548110611d2b57fe5b90600052602060002001819055508080600101915050611c3c565b50600460008373ffffffffffffffffffffffffffffffffffffffff1673ffffffffffffffffffffffffffffffffffffffff1681526020019081526020016000206001600460008573ffffffffffffffffffffffffffffffffffffffff1673ffffffffffffffffffffffffffffffffffffffff168152602001908152602001600020805490500381548110611dd657fe5b9060005260206000200160009055600460008373ffffffffffffffffffffffffffffffffffffffff1673ffffffffffffffffffffffffffffffffffffffff168152602001908152602001600020805480919060019003611e369190611f64565b505050565b60008082600001518360200151846060015185604001518660800151604051602001808673ffffffffffffffffffffffffffffffffffffffff1673ffffffffffffffffffffffffffffffffffffffff1660601b81526014018573ffffffffffffffffffffffffffffffffffffffff1673ffffffffffffffffffffffffffffffffffffffff1660601b81526014018481526020018381526020018281526020019550505050505060405160208183030381529060405280519060200120905080915050919050565b6040518060c00160405280600073ffffffffffffffffffffffffffffffffffffffff168152602001600073ffffffffffffffffffffffffffffffffffffffff168152602001600081526020016000815260200160008152602001600081525090565b815481835581811115611f8b57818360005260206000209182019101611f8a9190611f90565b5b505050565b611fb291905b80821115611fae576000816000905550600101611f96565b5090565b9056fea265627a7a723158209befd2da5dc4f154668989b4e99fd49f4075a6ef97b94dd9159065e025a2ca4064736f6c634300050c0032",
  "source": "pragma solidity ^0.5.12;\nimport \"./oracle.sol\";\nimport \"./DappToken.sol\";\n\ncontract calls {\n    address oracleAddress;\n    address dappAddress;\n    uint satUnits;\n    struct call{\n        address payable debtor;\n        address payable holder;\n        //block by which option may be exercised\n        uint maturity;\n        //strike is denominated in satoshis\n        uint strike;\n        uint timestamp;\n        uint amount;\n    }\n    \n    constructor (address _oracleAddress, address _dappAddress) public {\n        oracleAddress = _oracleAddress;\n        dappAddress = _dappAddress;\n        DappToken dt = DappToken(dappAddress);\n        satUnits = dt.satUnits();\n    }\n    \n    //use hash of \n    mapping (bytes32 => call) public allCalls;\n    /*\n        to-do\n        change the array from below to a linked list\n    */\n    mapping (address => bytes32[]) contracts;\n    \n    function mint(address payable _debtor, address payable _holder, uint _maturity, uint _strike, uint _amount) public returns(bool success){\n        require(_debtor != _holder);\n        DappToken dt = DappToken(dappAddress);\n        require(dt.transferFrom(msg.sender, address(this), satUnits*_amount, false));\n\n        call memory cont = call(_debtor, _holder, _maturity, _strike * satUnits, now, _amount);\n        bytes32 hash = hashCall(cont);\n        allCalls[hash] = cont;\n        contracts[_debtor].push(hash);\n        contracts[_holder].push(hash);\n        return true;\n    }\n    \n    function hashCall(call memory c) internal pure returns(bytes32){\n        bytes32 hash = keccak256(abi.encodePacked(c.debtor, c.holder, c.strike, c.maturity, c.timestamp));\n        return hash;\n    }\n    \n    function exercize(bytes32 _hash) public {\n        DappToken dt = DappToken(dappAddress);\n        uint spot = oracleVal() * satUnits;\n        require(msg.sender == allCalls[_hash].holder && block.number <= allCalls[_hash].maturity && spot > allCalls[_hash].strike);\n        \n        //distribute funds\n        uint payout = (allCalls[_hash].amount * satUnits*(spot - (allCalls[_hash].strike)))/spot;\n        dt.transfer(allCalls[_hash].holder, payout ,false);\n        //distribute excess collateral back to the seller\n        dt.transfer(allCalls[_hash].debtor, allCalls[_hash].amount*satUnits - payout, false);\n        \n        //remove the option contract from the blockchian\n        remove(allCalls[_hash].holder, locate(allCalls[_hash].holder, _hash));\n        remove(allCalls[_hash].debtor, locate(allCalls[_hash].debtor, _hash));\n        delete allCalls[_hash];\n    }\n    \n    function exercizeIndex(uint _index) public {\n        DappToken dt = DappToken(dappAddress);\n        require(_index < contracts[msg.sender].length);\n        bytes32 hash = contracts[msg.sender][_index];\n        uint spot = oracleVal() * satUnits;\n        require(msg.sender == allCalls[hash].holder && block.number <= allCalls[hash].maturity && spot > allCalls[hash].strike);\n        \n        //distribute funds\n        uint payout = (allCalls[hash].amount * satUnits*(spot - (allCalls[hash].strike)))/spot;\n        dt.transfer(allCalls[hash].holder, payout, false);\n        //distribute excess collateral back to the seller\n        dt.transfer(allCalls[hash].debtor, satUnits * allCalls[hash].amount - payout, false);\n        \n        //remove the option contract from the blockchian\n        remove(allCalls[hash].holder, locate(allCalls[hash].holder, hash));\n        remove(allCalls[hash].debtor, locate(allCalls[hash].debtor, hash));\n        delete allCalls[hash];\n    }\n    \n    function reclaim(bytes32 _hash) public {\n        DappToken dt = DappToken(dappAddress);\n        require(msg.sender == allCalls[_hash].debtor && block.number > allCalls[_hash].maturity);\n        \n        //send back all of the collateral to the seller\n        dt.transfer(allCalls[_hash].debtor, satUnits * allCalls[_hash].amount, false);\n        \n        //remove the option contract from the blockchian\n        remove(allCalls[_hash].holder, locate(allCalls[_hash].holder, _hash));\n        remove(allCalls[_hash].debtor, locate(allCalls[_hash].debtor, _hash));\n        delete allCalls[_hash];\n    }\n    \n    function reclaimIndex(uint _index) public {\n        DappToken dt = DappToken(dappAddress);\n        require(_index < contracts[msg.sender].length);\n        bytes32 hash = contracts[msg.sender][_index];\n        require(msg.sender == allCalls[hash].debtor && block.number > allCalls[hash].maturity);\n        \n        //send back all of the collateral to the seller\n        dt.transfer(allCalls[hash].debtor, satUnits * allCalls[hash].amount, false);\n\n        //remove the option contract from the blockchian\n        remove(allCalls[hash].holder, locate(allCalls[hash].holder, hash));\n        remove(allCalls[hash].debtor, locate(allCalls[hash].debtor, hash));\n        delete allCalls[hash];\n    }\n    \n    function locate(address _addr, bytes32 _hash) internal view returns(uint){\n        //optimise in the future to be O(log(n))\n        for (uint i = 0; i < contracts[_addr].length; i++){\n            if (contracts[_addr][i] == _hash)\n                return i;\n        }\n    }\n    \n    //remove a specific index from a users personal options array\n    function remove(address _addr, uint _index) internal {\n        for (uint i = _index; i<contracts[_addr].length-1; i++){\n            contracts[_addr][i] = contracts[_addr][i+1];\n        }\n        delete contracts[_addr][contracts[_addr].length-1];\n        contracts[_addr].length--;\n    }\n    \n    function myContracts() public view returns(bytes32[] memory){\n        return contracts[msg.sender];\n    }\n    \n    function contractAtIndex(uint _index) public view returns(bytes32){\n        require(_index < contracts[msg.sender].length);\n        return contracts[msg.sender][_index];\n    }\n    \n    function contractBalance() public view returns(uint){\n        return address(this).balance;\n    }\n    \n    function oracleVal() public view returns(uint){\n        oracle orc = oracle(oracleAddress);\n        return orc.get();\n    }\n    \n}",
  "sourcePath": "/home/chimi/Desktop/truffleWorkspace/feldmex/contracts/calls.sol",
  "compiler": {
    "name": "solc",
    "version": "0.5.12+commit.7709ece9.Emscripten.clang"
  },
  "schemaVersion": "3.0.19",
  "updatedAt": "2019-12-19T03:48:05.413Z",
  "networkType": "ethereum",
  "devdoc": {
    "methods": {}
  },
  "userdoc": {
    "methods": {}
  }
}