{
  "contractName": "calls",
  "abi": [
    {
      "inputs": [
        {
          "internalType": "address",
          "name": "_oracleAddress",
          "type": "address"
        },
        {
          "internalType": "address",
          "name": "_dappAddress",
          "type": "address"
        }
      ],
      "payable": false,
      "stateMutability": "nonpayable",
      "type": "constructor"
    },
    {
      "constant": true,
      "inputs": [
        {
          "internalType": "address",
          "name": "",
          "type": "address"
        }
      ],
      "name": "collateral",
      "outputs": [
        {
          "internalType": "uint256",
          "name": "",
          "type": "uint256"
        }
      ],
      "payable": false,
      "stateMutability": "view",
      "type": "function"
    },
    {
      "constant": true,
      "inputs": [
        {
          "internalType": "address",
          "name": "",
          "type": "address"
        },
        {
          "internalType": "uint256",
          "name": "",
          "type": "uint256"
        },
        {
          "internalType": "uint256",
          "name": "",
          "type": "uint256"
        }
      ],
      "name": "holdings",
      "outputs": [
        {
          "internalType": "int256",
          "name": "",
          "type": "int256"
        }
      ],
      "payable": false,
      "stateMutability": "view",
      "type": "function"
    },
    {
      "constant": false,
      "inputs": [
        {
          "internalType": "address payable",
          "name": "_debtor",
          "type": "address"
        },
        {
          "internalType": "address payable",
          "name": "_holder",
          "type": "address"
        },
        {
          "internalType": "uint256",
          "name": "_maturity",
          "type": "uint256"
        },
        {
          "internalType": "uint256",
          "name": "_strike",
          "type": "uint256"
        },
        {
          "internalType": "uint256",
          "name": "_amount",
          "type": "uint256"
        }
      ],
      "name": "mint",
      "outputs": [
        {
          "internalType": "bool",
          "name": "success",
          "type": "bool"
        }
      ],
      "payable": false,
      "stateMutability": "nonpayable",
      "type": "function"
    },
    {
      "constant": false,
      "inputs": [
        {
          "internalType": "uint256",
          "name": "_maturity",
          "type": "uint256"
        },
        {
          "internalType": "uint256",
          "name": "_strike",
          "type": "uint256"
        }
      ],
      "name": "claim",
      "outputs": [
        {
          "internalType": "bool",
          "name": "success",
          "type": "bool"
        }
      ],
      "payable": false,
      "stateMutability": "nonpayable",
      "type": "function"
    },
    {
      "constant": false,
      "inputs": [],
      "name": "withdrawFunds",
      "outputs": [
        {
          "internalType": "bool",
          "name": "success",
          "type": "bool"
        }
      ],
      "payable": false,
      "stateMutability": "nonpayable",
      "type": "function"
    },
    {
      "constant": true,
      "inputs": [],
      "name": "contractBalance",
      "outputs": [
        {
          "internalType": "uint256",
          "name": "",
          "type": "uint256"
        }
      ],
      "payable": false,
      "stateMutability": "view",
      "type": "function"
    },
    {
      "constant": true,
      "inputs": [],
      "name": "oracleVal",
      "outputs": [
        {
          "internalType": "uint256",
          "name": "",
          "type": "uint256"
        }
      ],
      "payable": false,
      "stateMutability": "view",
      "type": "function"
    }
  ],
  "bytecode": "0x608060405234801561001057600080fd5b50604051610bea380380610bea8339818101604052604081101561003357600080fd5b810190808051906020019092919080519060200190929190505050816000806101000a81548173ffffffffffffffffffffffffffffffffffffffff021916908373ffffffffffffffffffffffffffffffffffffffff16021790555080600160006101000a81548173ffffffffffffffffffffffffffffffffffffffff021916908373ffffffffffffffffffffffffffffffffffffffff1602179055506000600160009054906101000a900473ffffffffffffffffffffffffffffffffffffffff1690508073ffffffffffffffffffffffffffffffffffffffff1663e6de9f316040518163ffffffff1660e01b815260040160206040518083038186803b15801561013c57600080fd5b505afa158015610150573d6000803e3d6000fd5b505050506040513d602081101561016657600080fd5b8101908080519060200190929190505050600281905550505050610a5b8061018f6000396000f3fe608060405234801561001057600080fd5b506004361061007d5760003560e01c80638b7afe2e1161005b5780638b7afe2e1461012e5780639ceeaca71461014c578063a5fdc5de146101e6578063c34902631461023e5761007d565b806321dfc3961461008257806324600fc3146100ee578063309d836014610110575b600080fd5b6100d86004803603606081101561009857600080fd5b81019080803573ffffffffffffffffffffffffffffffffffffffff169060200190929190803590602001909291908035906020019092919050505061028e565b6040518082815260200191505060405180910390f35b6100f66102c0565b604051808215151515815260200191505060405180910390f35b61011861044f565b6040518082815260200191505060405180910390f35b6101366104fd565b6040518082815260200191505060405180910390f35b6101cc600480360360a081101561016257600080fd5b81019080803573ffffffffffffffffffffffffffffffffffffffff169060200190929190803573ffffffffffffffffffffffffffffffffffffffff16906020019092919080359060200190929190803590602001909291908035906020019092919050505061051c565b604051808215151515815260200191505060405180910390f35b610228600480360360208110156101fc57600080fd5b81019080803573ffffffffffffffffffffffffffffffffffffffff16906020019092919050505061077a565b6040518082815260200191505060405180910390f35b6102746004803603604081101561025457600080fd5b810190808035906020019092919080359060200190929190505050610792565b604051808215151515815260200191505060405180910390f35b600360205282600052604060002060205281600052604060002060205280600052604060002060009250925050505481565b600080600160009054906101000a900473ffffffffffffffffffffffffffffffffffffffff1690506000600460003373ffffffffffffffffffffffffffffffffffffffff1673ffffffffffffffffffffffffffffffffffffffff1681526020019081526020016000205490506000600460003373ffffffffffffffffffffffffffffffffffffffff1673ffffffffffffffffffffffffffffffffffffffff168152602001908152602001600020819055508173ffffffffffffffffffffffffffffffffffffffff1663e1ad1162338360006040518463ffffffff1660e01b8152600401808473ffffffffffffffffffffffffffffffffffffffff1673ffffffffffffffffffffffffffffffffffffffff168152602001838152602001821515151581526020019350505050602060405180830381600087803b15801561040557600080fd5b505af1158015610419573d6000803e3d6000fd5b505050506040513d602081101561042f57600080fd5b810190808051906020019092919050505061044657fe5b60019250505090565b6000806000809054906101000a900473ffffffffffffffffffffffffffffffffffffffff1690508073ffffffffffffffffffffffffffffffffffffffff16636d4ce63c6040518163ffffffff1660e01b815260040160206040518083038186803b1580156104bc57600080fd5b505afa1580156104d0573d6000803e3d6000fd5b505050506040513d60208110156104e657600080fd5b810190808051906020019092919050505091505090565b60003073ffffffffffffffffffffffffffffffffffffffff1631905090565b60008473ffffffffffffffffffffffffffffffffffffffff168673ffffffffffffffffffffffffffffffffffffffff16141561055757600080fd5b6000600160009054906101000a900473ffffffffffffffffffffffffffffffffffffffff1690508073ffffffffffffffffffffffffffffffffffffffff16636f2293ab3330866002540260006040518563ffffffff1660e01b8152600401808573ffffffffffffffffffffffffffffffffffffffff1673ffffffffffffffffffffffffffffffffffffffff1681526020018473ffffffffffffffffffffffffffffffffffffffff1673ffffffffffffffffffffffffffffffffffffffff16815260200183815260200182151515158152602001945050505050602060405180830381600087803b15801561064a57600080fd5b505af115801561065e573d6000803e3d6000fd5b505050506040513d602081101561067457600080fd5b810190808051906020019092919050505061068e57600080fd5b82600360008973ffffffffffffffffffffffffffffffffffffffff1673ffffffffffffffffffffffffffffffffffffffff168152602001908152602001600020600087815260200190815260200160002060008681526020019081526020016000206000828254039250508190555082600360008873ffffffffffffffffffffffffffffffffffffffff1673ffffffffffffffffffffffffffffffffffffffff1681526020019081526020016000206000878152602001908152602001600020600086815260200190815260200160002060008282540192505081905550600191505095945050505050565b60046020528060005260406000206000915090505481565b600080600360003373ffffffffffffffffffffffffffffffffffffffff1673ffffffffffffffffffffffffffffffffffffffff168152602001908152602001600020600085815260200190815260200160002060008481526020019081526020016000205490504384108015610809575060008114155b61081257600080fd5b6000600360003373ffffffffffffffffffffffffffffffffffffffff1673ffffffffffffffffffffffffffffffffffffffff168152602001908152602001600020600086815260200190815260200160002060008581526020019081526020016000208190555060008060009054906101000a900473ffffffffffffffffffffffffffffffffffffffff16905060008173ffffffffffffffffffffffffffffffffffffffff1663a9c70eaa876040518263ffffffff1660e01b81526004018082815260200191505060206040518083038186803b1580156108f257600080fd5b505afa158015610906573d6000803e3d6000fd5b505050506040513d602081101561091c57600080fd5b810190808051906020019092919050505090506000809050858211156109635781868303600254600087136109545786600003610956565b865b02028161095f57fe5b0490505b60008413156109be5780600460003373ffffffffffffffffffffffffffffffffffffffff1673ffffffffffffffffffffffffffffffffffffffff16815260200190815260200160002060008282540192505081905550610a18565b60018101600254856000030203600460003373ffffffffffffffffffffffffffffffffffffffff1673ffffffffffffffffffffffffffffffffffffffff168152602001908152602001600020600082825401925050819055505b60019450505050509291505056fea265627a7a72315820b75e8f459762c599f2f148438f81ec92217070459f2df532ac7dd0a96fd7990f64736f6c634300050c0032",
  "source": "pragma solidity ^0.5.12;\nimport \"./oracle.sol\";\nimport \"./DappToken.sol\";\n\ncontract calls {\n    address oracleAddress;\n    address dappAddress;\n    uint satUnits;\n    \n    /*struct call{\n        address payable debtor;\n        address payable holder;\n        //block by which option may be exercised\n        uint maturity;\n        //strike is denominated in satoshis\n        uint strike;\n        uint timestamp;\n        uint amount;\n    }*/\n    \n    constructor (address _oracleAddress, address _dappAddress) public {\n        oracleAddress = _oracleAddress;\n        dappAddress = _dappAddress;\n        DappToken dt = DappToken(dappAddress);\n        satUnits = dt.satUnits();\n    }\n    \n    //address => maturity => strike => amount\n    mapping(address => mapping(uint => mapping(uint => int))) public holdings;\n    \n    //collateral is denominated in satUnits\n    mapping(address => uint) public collateral;\n\n    function mint(address payable _debtor, address payable _holder, uint _maturity, uint _strike, uint _amount) public returns(bool success){\n        require(_debtor != _holder);\n        DappToken dt = DappToken(dappAddress);\n        require(dt.transferFrom(msg.sender, address(this), satUnits*_amount, false));\n        holdings[_debtor][_maturity][_strike] -= int(_amount);\n        holdings[_holder][_maturity][_strike] += int(_amount);\n        return true;\n    }\n    \n    function claim(uint _maturity, uint _strike) public returns(bool success){\n        int amount = holdings[msg.sender][_maturity][_strike];\n        require(_maturity < block.number && amount != 0);\n        holdings[msg.sender][_maturity][_strike] = 0;\n        oracle orc = oracle(oracleAddress);\n        uint spot = orc.getUint(_maturity);\n        uint payout = 0;\n        if (spot > _strike){\n            payout = (uint(amount > 0 ? amount : -amount) * satUnits * (spot - (_strike)))/spot;\n        }\n        if (amount > 0){\n            collateral[msg.sender] += payout;\n        }\n        else {\n            collateral[msg.sender] += uint(-amount)*satUnits - (payout + 1);\n        }\n        return true;\n    }\n    \n    function withdrawFunds() public returns(bool success){\n        DappToken dt = DappToken(dappAddress);\n        uint funds = collateral[msg.sender];\n        collateral[msg.sender] = 0;\n        assert(dt.transfer(msg.sender, funds, false));\n        return true;\n    }\n\n    function contractBalance() public view returns(uint){\n        return address(this).balance;\n    }\n    \n    function oracleVal() public view returns(uint){\n        oracle orc = oracle(oracleAddress);\n        return orc.get();\n    }\n    \n}",
  "sourcePath": "/home/chimi/Desktop/truffleWorkspace/feldmex/contracts/calls.sol",
  "compiler": {
    "name": "solc",
    "version": "0.5.12+commit.7709ece9.Emscripten.clang"
  },
  "schemaVersion": "3.0.19",
  "updatedAt": "2019-12-19T19:27:16.028Z",
  "networkType": "ethereum",
  "devdoc": {
    "methods": {}
  },
  "userdoc": {
    "methods": {}
  }
}