{
  "contractName": "collateral",
  "abi": [
    {
      "inputs": [
        {
          "internalType": "address",
          "name": "_dappAddress",
          "type": "address"
        },
        {
          "internalType": "address",
          "name": "_callsAddress",
          "type": "address"
        }
      ],
      "payable": false,
      "stateMutability": "nonpayable",
      "type": "constructor"
    },
    {
      "anonymous": false,
      "inputs": [
        {
          "indexed": false,
          "internalType": "bytes32",
          "name": "hash",
          "type": "bytes32"
        }
      ],
      "name": "offerPosted",
      "type": "event"
    },
    {
      "constant": true,
      "inputs": [
        {
          "internalType": "address",
          "name": "",
          "type": "address"
        }
      ],
      "name": "claimed",
      "outputs": [
        {
          "internalType": "uint256",
          "name": "",
          "type": "uint256"
        }
      ],
      "payable": false,
      "stateMutability": "view",
      "type": "function"
    },
    {
      "constant": true,
      "inputs": [
        {
          "internalType": "bytes32",
          "name": "",
          "type": "bytes32"
        }
      ],
      "name": "linkedNodes",
      "outputs": [
        {
          "internalType": "bytes32",
          "name": "hash",
          "type": "bytes32"
        },
        {
          "internalType": "bytes32",
          "name": "name",
          "type": "bytes32"
        },
        {
          "internalType": "bytes32",
          "name": "next",
          "type": "bytes32"
        },
        {
          "internalType": "bytes32",
          "name": "previous",
          "type": "bytes32"
        }
      ],
      "payable": false,
      "stateMutability": "view",
      "type": "function"
    },
    {
      "constant": true,
      "inputs": [
        {
          "internalType": "uint256",
          "name": "",
          "type": "uint256"
        },
        {
          "internalType": "uint256",
          "name": "",
          "type": "uint256"
        },
        {
          "internalType": "uint256",
          "name": "",
          "type": "uint256"
        }
      ],
      "name": "listHeads",
      "outputs": [
        {
          "internalType": "bytes32",
          "name": "",
          "type": "bytes32"
        }
      ],
      "payable": false,
      "stateMutability": "view",
      "type": "function"
    },
    {
      "constant": true,
      "inputs": [
        {
          "internalType": "bytes32",
          "name": "",
          "type": "bytes32"
        }
      ],
      "name": "offers",
      "outputs": [
        {
          "internalType": "address payable",
          "name": "offerer",
          "type": "address"
        },
        {
          "internalType": "uint256",
          "name": "maturity",
          "type": "uint256"
        },
        {
          "internalType": "uint256",
          "name": "strike",
          "type": "uint256"
        },
        {
          "internalType": "uint256",
          "name": "price",
          "type": "uint256"
        },
        {
          "internalType": "uint256",
          "name": "amount",
          "type": "uint256"
        },
        {
          "internalType": "bool",
          "name": "buy",
          "type": "bool"
        }
      ],
      "payable": false,
      "stateMutability": "view",
      "type": "function"
    },
    {
      "constant": true,
      "inputs": [],
      "name": "testing",
      "outputs": [
        {
          "internalType": "uint256",
          "name": "",
          "type": "uint256"
        }
      ],
      "payable": false,
      "stateMutability": "view",
      "type": "function"
    },
    {
      "constant": true,
      "inputs": [],
      "name": "totalOrders",
      "outputs": [
        {
          "internalType": "uint256",
          "name": "",
          "type": "uint256"
        }
      ],
      "payable": false,
      "stateMutability": "view",
      "type": "function"
    },
    {
      "constant": false,
      "inputs": [
        {
          "internalType": "uint256",
          "name": "_amount",
          "type": "uint256"
        },
        {
          "internalType": "bool",
          "name": "_fullUnit",
          "type": "bool"
        }
      ],
      "name": "postCollateral",
      "outputs": [
        {
          "internalType": "bool",
          "name": "success",
          "type": "bool"
        }
      ],
      "payable": false,
      "stateMutability": "nonpayable",
      "type": "function"
    },
    {
      "constant": true,
      "inputs": [
        {
          "internalType": "address",
          "name": "_addr",
          "type": "address"
        },
        {
          "internalType": "bool",
          "name": "_fullUnit",
          "type": "bool"
        }
      ],
      "name": "claimedCollateral",
      "outputs": [
        {
          "internalType": "uint256",
          "name": "",
          "type": "uint256"
        }
      ],
      "payable": false,
      "stateMutability": "view",
      "type": "function"
    },
    {
      "constant": false,
      "inputs": [
        {
          "internalType": "uint256",
          "name": "_value",
          "type": "uint256"
        },
        {
          "internalType": "bool",
          "name": "_fullUnit",
          "type": "bool"
        }
      ],
      "name": "withdrawCollateral",
      "outputs": [
        {
          "internalType": "bool",
          "name": "success",
          "type": "bool"
        }
      ],
      "payable": false,
      "stateMutability": "nonpayable",
      "type": "function"
    },
    {
      "constant": false,
      "inputs": [],
      "name": "withdrawMaxCollateral",
      "outputs": [
        {
          "internalType": "bool",
          "name": "success",
          "type": "bool"
        }
      ],
      "payable": false,
      "stateMutability": "nonpayable",
      "type": "function"
    },
    {
      "constant": false,
      "inputs": [
        {
          "internalType": "uint256",
          "name": "_maturity",
          "type": "uint256"
        },
        {
          "internalType": "uint256",
          "name": "_strike",
          "type": "uint256"
        },
        {
          "internalType": "uint256",
          "name": "_price",
          "type": "uint256"
        },
        {
          "internalType": "uint256",
          "name": "_amount",
          "type": "uint256"
        }
      ],
      "name": "postBuy",
      "outputs": [],
      "payable": false,
      "stateMutability": "nonpayable",
      "type": "function"
    },
    {
      "constant": false,
      "inputs": [
        {
          "internalType": "bytes32",
          "name": "_name",
          "type": "bytes32"
        }
      ],
      "name": "cancelBuy",
      "outputs": [],
      "payable": false,
      "stateMutability": "nonpayable",
      "type": "function"
    },
    {
      "constant": false,
      "inputs": [
        {
          "internalType": "uint256",
          "name": "_maturity",
          "type": "uint256"
        },
        {
          "internalType": "uint256",
          "name": "_strike",
          "type": "uint256"
        },
        {
          "internalType": "uint256",
          "name": "_amount",
          "type": "uint256"
        }
      ],
      "name": "marketSell",
      "outputs": [],
      "payable": false,
      "stateMutability": "nonpayable",
      "type": "function"
    },
    {
      "constant": false,
      "inputs": [
        {
          "internalType": "uint256",
          "name": "_maturity",
          "type": "uint256"
        },
        {
          "internalType": "uint256",
          "name": "_strike",
          "type": "uint256"
        },
        {
          "internalType": "uint256",
          "name": "_price",
          "type": "uint256"
        },
        {
          "internalType": "uint256",
          "name": "_amount",
          "type": "uint256"
        }
      ],
      "name": "postSell",
      "outputs": [],
      "payable": false,
      "stateMutability": "nonpayable",
      "type": "function"
    },
    {
      "constant": false,
      "inputs": [
        {
          "internalType": "bytes32",
          "name": "_name",
          "type": "bytes32"
        }
      ],
      "name": "cancelSell",
      "outputs": [],
      "payable": false,
      "stateMutability": "nonpayable",
      "type": "function"
    },
    {
      "constant": false,
      "inputs": [
        {
          "internalType": "uint256",
          "name": "_maturity",
          "type": "uint256"
        },
        {
          "internalType": "uint256",
          "name": "_strike",
          "type": "uint256"
        },
        {
          "internalType": "uint256",
          "name": "_amount",
          "type": "uint256"
        }
      ],
      "name": "marketBuy",
      "outputs": [],
      "payable": false,
      "stateMutability": "nonpayable",
      "type": "function"
    }
  ],
  "bytecode": "0x60806040523480156200001157600080fd5b5060405162003e8a38038062003e8a833981810160405260408110156200003757600080fd5b81019080805190602001909291908051906020019092919050505081600460006101000a81548173ffffffffffffffffffffffffffffffffffffffff021916908373ffffffffffffffffffffffffffffffffffffffff16021790555080600560006101000a81548173ffffffffffffffffffffffffffffffffffffffff021916908373ffffffffffffffffffffffffffffffffffffffff16021790555060016006819055506000600460009054906101000a900473ffffffffffffffffffffffffffffffffffffffff1690508073ffffffffffffffffffffffffffffffffffffffff1663e6de9f316040518163ffffffff1660e01b815260040160206040518083038186803b1580156200014a57600080fd5b505afa1580156200015f573d6000803e3d6000fd5b505050506040513d60208110156200017657600080fd5b81019080805190602001909291905050506007819055508073ffffffffffffffffffffffffffffffffffffffff166307ce29a7600560009054906101000a900473ffffffffffffffffffffffffffffffffffffffff167f800000000000000000000000000000000000000000000000000000000000000060006040518463ffffffff1660e01b8152600401808473ffffffffffffffffffffffffffffffffffffffff1673ffffffffffffffffffffffffffffffffffffffff168152602001838152602001821515151581526020019350505050602060405180830381600087803b1580156200026457600080fd5b505af115801562000279573d6000803e3d6000fd5b505050506040513d60208110156200029057600080fd5b810190808051906020019092919050505050505050613bd580620002b56000396000f3fe608060405234801561001057600080fd5b50600436106101005760003560e01c80638d03b10211610097578063d862398f11610066578063d862398f14610453578063df626faf146104b7578063fb0c9b0c14610509578063fcaab2241461052b57610100565b80638d03b1021461034f578063b55e09121461036d578063b59712b1146103af578063c884ef83146103fb57610100565b806329f671f8116100d357806329f671f8146101d55780633c8e5d441461022c578063474d3ff01461026e5780635aa1acbd1461030357610100565b8063164cded6146101055780631a399891146101335780631b7c7ea7146101895780631d834409146101b7575b600080fd5b6101316004803603602081101561011b57600080fd5b810190808035906020019092919050505061057d565b005b6101736004803603606081101561014957600080fd5b8101908080359060200190929190803590602001909291908035906020019092919050505061094f565b6040518082815260200191505060405180910390f35b6101b56004803603602081101561019f57600080fd5b8101908080359060200190929190505050610981565b005b6101bf610d8a565b6040518082815260200191505060405180910390f35b610201600480360360208110156101eb57600080fd5b8101908080359060200190929190505050610d90565b6040518085815260200184815260200183815260200182815260200194505050505060405180910390f35b61026c6004803603606081101561024257600080fd5b81019080803590602001909291908035906020019092919080359060200190929190505050610dc0565b005b61029a6004803603602081101561028457600080fd5b8101908080359060200190929190505050611364565b604051808773ffffffffffffffffffffffffffffffffffffffff1673ffffffffffffffffffffffffffffffffffffffff16815260200186815260200185815260200184815260200183815260200182151515158152602001965050505050505060405180910390f35b61034d6004803603608081101561031957600080fd5b81019080803590602001909291908035906020019092919080359060200190929190803590602001909291905050506113cd565b005b610357611af2565b6040518082815260200191505060405180910390f35b6103ad6004803603606081101561038357600080fd5b81019080803590602001909291908035906020019092919080359060200190929190505050611af8565b005b6103f9600480360360808110156103c557600080fd5b810190808035906020019092919080359060200190929190803590602001909291908035906020019092919050505061214f565b005b61043d6004803603602081101561041157600080fd5b81019080803573ffffffffffffffffffffffffffffffffffffffff16906020019092919050505061283d565b6040518082815260200191505060405180910390f35b6104a16004803603604081101561046957600080fd5b81019080803573ffffffffffffffffffffffffffffffffffffffff169060200190929190803515159060200190929190505050612855565b6040518082815260200191505060405180910390f35b6104ef600480360360408110156104cd57600080fd5b81019080803590602001909291908035151590602001909291905050506128b6565b604051808215151515815260200191505060405180910390f35b610511612a58565b604051808215151515815260200191505060405180910390f35b6105636004803603604081101561054157600080fd5b8101908080359060200190929190803515159060200190929190505050612bea565b604051808215151515815260200191505060405180910390f35b610585613b1e565b600260008381526020019081526020016000206040518060800160405290816000820154815260200160018201548152602001600282015481526020016003820154815250509050600360008260000151815260200190815260200160002060000160009054906101000a900473ffffffffffffffffffffffffffffffffffffffff1673ffffffffffffffffffffffffffffffffffffffff163373ffffffffffffffffffffffffffffffffffffffff161480156106675750600360008260000151815260200190815260200160002060050160009054906101000a900460ff16155b61067057600080fd5b600360008260000151815260200190815260200160002060040154600754026000803373ffffffffffffffffffffffffffffffffffffffff1673ffffffffffffffffffffffffffffffffffffffff168152602001908152602001600020600082825401925050819055506000801b8160400151141580156106f857506000801b816060015114155b1561074857806060015160026000836040015181526020019081526020016000206003018190555080604001516002600083606001518152602001908152602001600020600201819055506108a0565b6000801b816040015114801561076457506000801b8160600151145b156107d757600160006003600084600001518152602001908152602001600020600101548152602001908152602001600020600060036000846000015181526020019081526020016000206002015481526020019081526020016000206001600281106107cd57fe5b016000905561089f565b6000801b8160400151141561080d576000801b60026000836060015181526020019081526020016000206002018190555061089e565b6000801b60026000836040015181526020019081526020016000206003018190555080604001516001600060036000856000015181526020019081526020016000206001015481526020019081526020016000206000600360008560000151815260200190815260200160002060020154815260200190815260200160002060016002811061089857fe5b01819055505b5b5b6002600083815260200190815260200160002060008082016000905560018201600090556002820160009055600382016000905550506003600082600001518152602001908152602001600020600080820160006101000a81549073ffffffffffffffffffffffffffffffffffffffff021916905560018201600090556002820160009055600382016000905560048201600090556005820160006101000a81549060ff021916905550505050565b6001602052826000526040600020602052816000526040600020816002811061097457fe5b0160009250925050505481565b610989613b1e565b600260008381526020019081526020016000206040518060800160405290816000820154815260200160018201548152602001600282015481526020016003820154815250509050600360008260000151815260200190815260200160002060000160009054906101000a900473ffffffffffffffffffffffffffffffffffffffff1673ffffffffffffffffffffffffffffffffffffffff163373ffffffffffffffffffffffffffffffffffffffff16148015610a6a5750600360008260000151815260200190815260200160002060050160009054906101000a900460ff165b610a7357600080fd5b600360008260000151815260200190815260200160002060040154600360008360000151815260200190815260200160002060030154026000803373ffffffffffffffffffffffffffffffffffffffff1673ffffffffffffffffffffffffffffffffffffffff168152602001908152602001600020600082825401925050819055506000801b816040015114158015610b1357506000801b816060015114155b15610b6b57806060015160026000836040015181526020019081526020016000206003018190555080604001516002600083606001518152602001908152602001600020600201819055506001600881905550610cdb565b6000801b8160400151148015610b8757506000801b8160600151145b15610c025760016000600360008460000151815260200190815260200160002060010154815260200190815260200160002060006003600084600001518152602001908152602001600020600201548152602001908152602001600020600060028110610bf057fe5b01600090556002600881905550610cda565b6000801b81604001511415610c40576000801b6002600083606001518152602001908152602001600020600201819055506003600881905550610cd9565b6000801b600260008360400151815260200190815260200160002060030181905550806040015160016000600360008560000151815260200190815260200160002060010154815260200190815260200160002060006003600085600001518152602001908152602001600020600201548152602001908152602001600020600060028110610ccb57fe5b018190555060046008819055505b5b5b6002600083815260200190815260200160002060008082016000905560018201600090556002820160009055600382016000905550506003600082600001518152602001908152602001600020600080820160006101000a81549073ffffffffffffffffffffffffffffffffffffffff021916905560018201600090556002820160009055600382016000905560048201600090556005820160006101000a81549060ff021916905550505050565b60065481565b60026020528060005260406000206000915090508060000154908060010154908060020154908060030154905084565b610dc8613b1e565b60026000600160008781526020019081526020016000206000868152602001908152602001600020600160028110610dfc57fe5b015481526020019081526020016000206040518060800160405290816000820154815260200160018201548152602001600282015481526020016003820154815250509050610e49613b52565b60036000836000015181526020019081526020016000206040518060c00160405290816000820160009054906101000a900473ffffffffffffffffffffffffffffffffffffffff1673ffffffffffffffffffffffffffffffffffffffff1673ffffffffffffffffffffffffffffffffffffffff168152602001600182015481526020016002820154815260200160038201548152602001600482015481526020016005820160009054906101000a900460ff16151515158152505090506000801b600160008781526020019081526020016000206000868152602001908152602001600020600160028110610f3a57fe5b015414158015610f7a5750806000015173ffffffffffffffffffffffffffffffffffffffff163373ffffffffffffffffffffffffffffffffffffffff1614155b610f8357600080fd5b5b600083118015610f9b57506000801b826020015114155b8015610fe9575080606001516000803373ffffffffffffffffffffffffffffffffffffffff1673ffffffffffffffffffffffffffffffffffffffff1681526020019081526020016000205410155b1561135d576000600560009054906101000a900473ffffffffffffffffffffffffffffffffffffffff169050838260800151111561120a57838260600151026000803373ffffffffffffffffffffffffffffffffffffffff1673ffffffffffffffffffffffffffffffffffffffff16815260200190815260200160002054101561107257600080fd5b838260600151026000803373ffffffffffffffffffffffffffffffffffffffff1673ffffffffffffffffffffffffffffffffffffffff168152602001908152602001600020600082825403925050819055508073ffffffffffffffffffffffffffffffffffffffff16639ceeaca783600001513385602001518660400151896040518663ffffffff1660e01b8152600401808673ffffffffffffffffffffffffffffffffffffffff1673ffffffffffffffffffffffffffffffffffffffff1681526020018573ffffffffffffffffffffffffffffffffffffffff1673ffffffffffffffffffffffffffffffffffffffff16815260200184815260200183815260200182815260200195505050505050602060405180830381600087803b15801561119b57600080fd5b505af11580156111af573d6000803e3d6000fd5b505050506040513d60208110156111c557600080fd5b81019080805190602001909291905050506111dc57fe5b836003600085600001518152602001908152602001600020600401600082825403925050819055505061135d565b816080015184039350611221338460200151612d4c565b6002600060016000898152602001908152602001600020600088815260200190815260200160002060016002811061125557fe5b01548152602001908152602001600020604051806080016040529081600082015481526020016001820154815260200160028201548152602001600382015481525050925060036000846000015181526020019081526020016000206040518060c00160405290816000820160009054906101000a900473ffffffffffffffffffffffffffffffffffffffff1673ffffffffffffffffffffffffffffffffffffffff1673ffffffffffffffffffffffffffffffffffffffff168152602001600182015481526020016002820154815260200160038201548152602001600482015481526020016005820160009054906101000a900460ff161515151581525050915050610f84565b5050505050565b60036020528060005260406000206000915090508060000160009054906101000a900473ffffffffffffffffffffffffffffffffffffffff16908060010154908060020154908060030154908060040154908060050160009054906101000a900460ff16905086565b80600754026000803373ffffffffffffffffffffffffffffffffffffffff1673ffffffffffffffffffffffffffffffffffffffff168152602001908152602001600020541015801561141f5750600082115b61142857600080fd5b80600754026000803373ffffffffffffffffffffffffffffffffffffffff1673ffffffffffffffffffffffffffffffffffffffff16815260200190815260200160002060008282540392505081905550611480613b52565b6040518060c001604052803373ffffffffffffffffffffffffffffffffffffffff16815260200186815260200185815260200184815260200183815260200160001515815250905060006114d3826133b9565b905060006114e08261345b565b9050826003600084815260200190815260200160002060008201518160000160006101000a81548173ffffffffffffffffffffffffffffffffffffffff021916908373ffffffffffffffffffffffffffffffffffffffff1602179055506020820151816001015560408201518160020155606082015181600301556080820151816004015560a08201518160050160006101000a81548160ff021916908315150217905550905050611590613b1e565b60026000600160008b815260200190815260200160002060008a81526020019081526020016000206001600281106115c457fe5b0154815260200190815260200160002060405180608001604052908160008201548152602001600182015481526020016002820154815260200160038201548152505090506000600360008360000151815260200190815260200160002060030154148061164c57508560036000836000015181526020019081526020016000206003015410155b1561179c576040518060800160405280848152602001838152602001826020015181526020016000801b8152506002600084815260200190815260200160002060008201518160000155602082015181600101556040820151816002015560608201518160030155905050600060036000836000015181526020019081526020016000206003015414611726578160026000600160008c815260200190815260200160002060008b815260200190815260200160002060016002811061170e57fe5b01548152602001908152602001600020600301819055505b81600160008a8152602001908152602001600020600089815260200190815260200160002060016002811061175757fe5b01819055507f74ffec32832b6bb788e4b0691a5de69bc052698612207f66bcebfb0eb19e08a3836040518082815260200191505060405180910390a150505050611aec565b6117a4613b1e565b5b6000801b82602001511461182d578190506002600083604001518152602001908152602001600020604051806080016040529081600082015481526020016001820154815260200160028201548152602001600382015481525050915086600360008460000151815260200190815260200160002060030154106118285761182d565b6117a5565b60006003600083600001518152602001908152602001600020600301541415611916576040518060800160405280858152602001848152602001836020015181526020016000801b8152506002600085815260200190815260200160002060008201518160000155602082015181600101556040820151816002015560608201518160030155905050826002600084602001518152602001908152602001600020600201819055507f74ffec32832b6bb788e4b0691a5de69bc052698612207f66bcebfb0eb19e08a3846040518082815260200191505060405180910390a15050505050611aec565b6000801b82602001511415611a0a5760405180608001604052808581526020018481526020016000801b81526020018260200151815250600260008581526020019081526020016000206000820151816000015560208201518160010155604082015181600201556060820151816003015590505082600260008460200151815260200190815260200160002060030181905550826002600083602001518152602001908152602001600020600201819055507f74ffec32832b6bb788e4b0691a5de69bc052698612207f66bcebfb0eb19e08a3846040518082815260200191505060405180910390a15050505050611aec565b6040518060800160405280858152602001848152602001836020015181526020018260200151815250600260008581526020019081526020016000206000820151816000015560208201518160010155604082015181600201556060820151816003015590505082600260008460200151815260200190815260200160002060030181905550826002600083602001518152602001908152602001600020600201819055507f74ffec32832b6bb788e4b0691a5de69bc052698612207f66bcebfb0eb19e08a3846040518082815260200191505060405180910390a150505050505b50505050565b60085481565b6000600460009054906101000a900473ffffffffffffffffffffffffffffffffffffffff169050611b27613b1e565b60026000600160008881526020019081526020016000206000878152602001908152602001600020600060028110611b5b57fe5b015481526020019081526020016000206040518060800160405290816000820154815260200160018201548152602001600282015481526020016003820154815250509050611ba8613b52565b60036000836000015181526020019081526020016000206040518060c00160405290816000820160009054906101000a900473ffffffffffffffffffffffffffffffffffffffff1673ffffffffffffffffffffffffffffffffffffffff1673ffffffffffffffffffffffffffffffffffffffff168152602001600182015481526020016002820154815260200160038201548152602001600482015481526020016005820160009054906101000a900460ff161515151581525050905083600754026000803373ffffffffffffffffffffffffffffffffffffffff1673ffffffffffffffffffffffffffffffffffffffff1681526020019081526020016000205410158015611ceb57506000801b600160008881526020019081526020016000206000878152602001908152602001600020600060028110611ce657fe5b015414155b8015611d275750806000015173ffffffffffffffffffffffffffffffffffffffff163373ffffffffffffffffffffffffffffffffffffffff1614155b611d3057600080fd5b5b600084118015611d4857506000801b826020015114155b15612147576000600560009054906101000a900473ffffffffffffffffffffffffffffffffffffffff1690508482608001511115611ff4578073ffffffffffffffffffffffffffffffffffffffff16639ceeaca7338460000151856020015186604001518a6040518663ffffffff1660e01b8152600401808673ffffffffffffffffffffffffffffffffffffffff1673ffffffffffffffffffffffffffffffffffffffff1681526020018573ffffffffffffffffffffffffffffffffffffffff1673ffffffffffffffffffffffffffffffffffffffff16815260200184815260200183815260200182815260200195505050505050602060405180830381600087803b158015611e5757600080fd5b505af1158015611e6b573d6000803e3d6000fd5b505050506040513d6020811015611e8157600080fd5b8101908080519060200190929190505050611e9b57600080fd5b84600754026000803373ffffffffffffffffffffffffffffffffffffffff1673ffffffffffffffffffffffffffffffffffffffff16815260200190815260200160002060008282540392505081905550846003600085600001518152602001908152602001600020600401600082825403925050819055508373ffffffffffffffffffffffffffffffffffffffff1663e1ad1162338785606001510260006040518463ffffffff1660e01b8152600401808473ffffffffffffffffffffffffffffffffffffffff1673ffffffffffffffffffffffffffffffffffffffff168152602001838152602001821515151581526020019350505050602060405180830381600087803b158015611fad57600080fd5b505af1158015611fc1573d6000803e3d6000fd5b505050506040513d6020811015611fd757600080fd5b8101908080519060200190929190505050611fee57fe5b50612147565b81608001518503945061200b3384602001516134af565b60026000600160008a8152602001908152602001600020600089815260200190815260200160002060006002811061203f57fe5b01548152602001908152602001600020604051806080016040529081600082015481526020016001820154815260200160028201548152602001600382015481525050925060036000846000015181526020019081526020016000206040518060c00160405290816000820160009054906101000a900473ffffffffffffffffffffffffffffffffffffffff1673ffffffffffffffffffffffffffffffffffffffff1673ffffffffffffffffffffffffffffffffffffffff168152602001600182015481526020016002820154815260200160038201548152602001600482015481526020016005820160009054906101000a900460ff161515151581525050915050611d31565b505050505050565b8082026000803373ffffffffffffffffffffffffffffffffffffffff1673ffffffffffffffffffffffffffffffffffffffff16815260200190815260200160002054101561219c57600080fd5b8082026000803373ffffffffffffffffffffffffffffffffffffffff1673ffffffffffffffffffffffffffffffffffffffff168152602001908152602001600020600082825403925050819055506121f2613b52565b6040518060c001604052803373ffffffffffffffffffffffffffffffffffffffff1681526020018681526020018581526020018481526020018381526020016001151581525090506000612245826133b9565b905060006122528261345b565b9050826003600084815260200190815260200160002060008201518160000160006101000a81548173ffffffffffffffffffffffffffffffffffffffff021916908373ffffffffffffffffffffffffffffffffffffffff1602179055506020820151816001015560408201518160020155606082015181600301556080820151816004015560a08201518160050160006101000a81548160ff021916908315150217905550905050612302613b1e565b60026000600160008b815260200190815260200160002060008a815260200190815260200160002060006002811061233657fe5b01548152602001908152602001600020604051806080016040529081600082015481526020016001820154815260200160028201548152602001600382015481525050905085600360008360000151815260200190815260200160002060030154116124e7576040518060800160405280848152602001838152602001826020015181526020016000801b8152506002600084815260200190815260200160002060008201518160000155602082015181600101556040820151816002015560608201518160030155905050600060036000836000015181526020019081526020016000206003015414612471578160026000600160008c815260200190815260200160002060008b815260200190815260200160002060006002811061245957fe5b01548152602001908152602001600020600301819055505b81600160008a815260200190815260200160002060008981526020019081526020016000206000600281106124a257fe5b01819055507f74ffec32832b6bb788e4b0691a5de69bc052698612207f66bcebfb0eb19e08a3836040518082815260200191505060405180910390a150505050612837565b6124ef613b1e565b5b6000801b8260200151146125785781905060026000836040015181526020019081526020016000206040518060800160405290816000820154815260200160018201548152602001600282015481526020016003820154815250509150866003600084600001518152602001908152602001600020600301541161257357612578565b6124f0565b60006003600083600001518152602001908152602001600020600301541415612661576040518060800160405280858152602001848152602001836020015181526020016000801b8152506002600085815260200190815260200160002060008201518160000155602082015181600101556040820151816002015560608201518160030155905050826002600084602001518152602001908152602001600020600201819055507f74ffec32832b6bb788e4b0691a5de69bc052698612207f66bcebfb0eb19e08a3846040518082815260200191505060405180910390a15050505050612837565b6000801b826020015114156127555760405180608001604052808581526020018481526020016000801b81526020018260200151815250600260008581526020019081526020016000206000820151816000015560208201518160010155604082015181600201556060820151816003015590505082600260008460200151815260200190815260200160002060030181905550826002600083602001518152602001908152602001600020600201819055507f74ffec32832b6bb788e4b0691a5de69bc052698612207f66bcebfb0eb19e08a3846040518082815260200191505060405180910390a15050505050612837565b6040518060800160405280858152602001848152602001836020015181526020018260200151815250600260008581526020019081526020016000206000820151816000015560208201518160010155604082015181600201556060820151816003015590505082600260008460200151815260200190815260200160002060030181905550826002600083602001518152602001908152602001600020600201819055507f74ffec32832b6bb788e4b0691a5de69bc052698612207f66bcebfb0eb19e08a3846040518082815260200191505060405180910390a150505050505b50505050565b60006020528060005260406000206000915090505481565b600081612863576001612867565b6007545b6000808573ffffffffffffffffffffffffffffffffffffffff1673ffffffffffffffffffffffffffffffffffffffff16815260200190815260200160002054816128ad57fe5b04905092915050565b600080600460009054906101000a900473ffffffffffffffffffffffffffffffffffffffff1690508073ffffffffffffffffffffffffffffffffffffffff16636f2293ab333087876040518563ffffffff1660e01b8152600401808573ffffffffffffffffffffffffffffffffffffffff1673ffffffffffffffffffffffffffffffffffffffff1681526020018473ffffffffffffffffffffffffffffffffffffffff1673ffffffffffffffffffffffffffffffffffffffff16815260200183815260200182151515158152602001945050505050602060405180830381600087803b1580156129a557600080fd5b505af11580156129b9573d6000803e3d6000fd5b505050506040513d60208110156129cf57600080fd5b810190808051906020019092919050505015612a4c57826129f15760016129f5565b6007545b84026000803373ffffffffffffffffffffffffffffffffffffffff1673ffffffffffffffffffffffffffffffffffffffff168152602001908152602001600020600082825401925050819055506001915050612a52565b60009150505b92915050565b6000806000803373ffffffffffffffffffffffffffffffffffffffff1673ffffffffffffffffffffffffffffffffffffffff16815260200190815260200160002054905060008111612aa957600080fd5b6000600460009054906101000a900473ffffffffffffffffffffffffffffffffffffffff16905060008060003373ffffffffffffffffffffffffffffffffffffffff1673ffffffffffffffffffffffffffffffffffffffff168152602001908152602001600020819055508073ffffffffffffffffffffffffffffffffffffffff1663e1ad1162338460006040518463ffffffff1660e01b8152600401808473ffffffffffffffffffffffffffffffffffffffff1673ffffffffffffffffffffffffffffffffffffffff168152602001838152602001821515151581526020019350505050602060405180830381600087803b158015612ba857600080fd5b505af1158015612bbc573d6000803e3d6000fd5b505050506040513d6020811015612bd257600080fd5b81019080805190602001909291905050509250505090565b600080600460009054906101000a900473ffffffffffffffffffffffffffffffffffffffff1690508383612c1f576001612c23565b6007545b6000803373ffffffffffffffffffffffffffffffffffffffff1673ffffffffffffffffffffffffffffffffffffffff1681526020019081526020016000205481612c6957fe5b041015612c7557600080fd5b8073ffffffffffffffffffffffffffffffffffffffff1663e1ad11623386866040518463ffffffff1660e01b8152600401808473ffffffffffffffffffffffffffffffffffffffff1673ffffffffffffffffffffffffffffffffffffffff168152602001838152602001821515151581526020019350505050602060405180830381600087803b158015612d0857600080fd5b505af1158015612d1c573d6000803e3d6000fd5b505050506040513d6020811015612d3257600080fd5b810190808051906020019092919050505091505092915050565b6000600460009054906101000a900473ffffffffffffffffffffffffffffffffffffffff169050612d7b613b1e565b600260008481526020019081526020016000206040518060800160405290816000820154815260200160018201548152602001600282015481526020016003820154815250509050612dcb613b52565b60036000836000015181526020019081526020016000206040518060c00160405290816000820160009054906101000a900473ffffffffffffffffffffffffffffffffffffffff1673ffffffffffffffffffffffffffffffffffffffff1673ffffffffffffffffffffffffffffffffffffffff168152602001600182015481526020016002820154815260200160038201548152602001600482015481526020016005820160009054906101000a900460ff161515151581525050905080608001518160600151026000808773ffffffffffffffffffffffffffffffffffffffff1673ffffffffffffffffffffffffffffffffffffffff1681526020019081526020016000205410158015612f105750806000015173ffffffffffffffffffffffffffffffffffffffff168573ffffffffffffffffffffffffffffffffffffffff1614155b8015612f1e57508060a00151155b612f2757600080fd5b80608001518160600151026000808773ffffffffffffffffffffffffffffffffffffffff1673ffffffffffffffffffffffffffffffffffffffff168152602001908152602001600020600082825403925050819055506000801b826040015114158015612f9b57506000801b826060015114155b15612feb57816060015160026000846040015181526020019081526020016000206003018190555081604001516002600084606001518152602001908152602001600020600201819055506130eb565b6000801b826040015114801561300757506000801b8260400151145b1561304e57600160008260200151815260200190815260200160002060008260400151815260200190815260200160002060016002811061304457fe5b01600090556130ea565b6000801b82604001511415613084576000801b6002600084606001518152602001908152602001600020600201819055506130e9565b6000801b600260008460400151815260200190815260200160002060030181905550816040015160016000836020015181526020019081526020016000206000836040015181526020019081526020016000206001600281106130e357fe5b01819055505b5b5b6000600560009054906101000a900473ffffffffffffffffffffffffffffffffffffffff1690508373ffffffffffffffffffffffffffffffffffffffff1663e1ad11628360000151846060015160006040518463ffffffff1660e01b8152600401808473ffffffffffffffffffffffffffffffffffffffff1673ffffffffffffffffffffffffffffffffffffffff168152602001838152602001821515151581526020019350505050602060405180830381600087803b1580156131ae57600080fd5b505af11580156131c2573d6000803e3d6000fd5b505050506040513d60208110156131d857600080fd5b8101908080519060200190929190505050508073ffffffffffffffffffffffffffffffffffffffff16639ceeaca78360000151888560200151866040015187608001516040518663ffffffff1660e01b8152600401808673ffffffffffffffffffffffffffffffffffffffff1673ffffffffffffffffffffffffffffffffffffffff1681526020018573ffffffffffffffffffffffffffffffffffffffff1673ffffffffffffffffffffffffffffffffffffffff16815260200184815260200183815260200182815260200195505050505050602060405180830381600087803b1580156132c557600080fd5b505af11580156132d9573d6000803e3d6000fd5b505050506040513d60208110156132ef57600080fd5b810190808051906020019092919050505061330657fe5b6002600086815260200190815260200160002060008082016000905560018201600090556002820160009055600382016000905550506003600084600001518152602001908152602001600020600080820160006101000a81549073ffffffffffffffffffffffffffffffffffffffff021916905560018201600090556002820160009055600382016000905560048201600090556005820160006101000a81549060ff02191690555050505050505050565b600081602001518260400151836060015184600001518560a0015142604051602001808781526020018681526020018581526020018473ffffffffffffffffffffffffffffffffffffffff1673ffffffffffffffffffffffffffffffffffffffff1660601b8152601401831515151560f81b81526001018281526020019650505050505050604051602081830303815290604052805190602001209050919050565b60006006600081548092919060010191905055508142600654604051602001808481526020018381526020018281526020019350505050604051602081830303815290604052805190602001209050919050565b6000600460009054906101000a900473ffffffffffffffffffffffffffffffffffffffff1690506134de613b1e565b60026000848152602001908152602001600020604051806080016040529081600082015481526020016001820154815260200160028201548152602001600382015481525050905061352e613b52565b60036000836000015181526020019081526020016000206040518060c00160405290816000820160009054906101000a900473ffffffffffffffffffffffffffffffffffffffff1673ffffffffffffffffffffffffffffffffffffffff1673ffffffffffffffffffffffffffffffffffffffff168152602001600182015481526020016002820154815260200160038201548152602001600482015481526020016005820160009054906101000a900460ff161515151581525050905080602001516008819055508060800151600754026000808773ffffffffffffffffffffffffffffffffffffffff1673ffffffffffffffffffffffffffffffffffffffff168152602001908152602001600020541015801561367c5750806000015173ffffffffffffffffffffffffffffffffffffffff168573ffffffffffffffffffffffffffffffffffffffff1614155b801561368957508060a001515b61369257600080fd5b8060800151600754026000808773ffffffffffffffffffffffffffffffffffffffff1673ffffffffffffffffffffffffffffffffffffffff168152602001908152602001600020600082825403925050819055506000801b82604001511415801561370457506000801b826060015114155b156137545781606001516002600084604001518152602001908152602001600020600301819055508160400151600260008460600151815260200190815260200160002060020181905550613854565b6000801b826040015114801561377057506000801b8260400151145b156137b75760016000826020015181526020019081526020016000206000826040015181526020019081526020016000206000600281106137ad57fe5b0160009055613853565b6000801b826040015114156137ed576000801b600260008460600151815260200190815260200160002060020181905550613852565b6000801b6002600084604001518152602001908152602001600020600301819055508160400151600160008360200151815260200190815260200160002060008360400151815260200190815260200160002060006002811061384c57fe5b01819055505b5b5b6000600560009054906101000a900473ffffffffffffffffffffffffffffffffffffffff1690508373ffffffffffffffffffffffffffffffffffffffff1663e1ad116287846060015160006040518463ffffffff1660e01b8152600401808473ffffffffffffffffffffffffffffffffffffffff1673ffffffffffffffffffffffffffffffffffffffff168152602001838152602001821515151581526020019350505050602060405180830381600087803b15801561391357600080fd5b505af1158015613927573d6000803e3d6000fd5b505050506040513d602081101561393d57600080fd5b8101908080519060200190929190505050508073ffffffffffffffffffffffffffffffffffffffff16639ceeaca78784600001518560200151866040015187608001516040518663ffffffff1660e01b8152600401808673ffffffffffffffffffffffffffffffffffffffff1673ffffffffffffffffffffffffffffffffffffffff1681526020018573ffffffffffffffffffffffffffffffffffffffff1673ffffffffffffffffffffffffffffffffffffffff16815260200184815260200183815260200182815260200195505050505050602060405180830381600087803b158015613a2a57600080fd5b505af1158015613a3e573d6000803e3d6000fd5b505050506040513d6020811015613a5457600080fd5b8101908080519060200190929190505050613a6b57fe5b6002600086815260200190815260200160002060008082016000905560018201600090556002820160009055600382016000905550506003600084600001518152602001908152602001600020600080820160006101000a81549073ffffffffffffffffffffffffffffffffffffffff021916905560018201600090556002820160009055600382016000905560048201600090556005820160006101000a81549060ff02191690555050505050505050565b6040518060800160405280600080191681526020016000801916815260200160008019168152602001600080191681525090565b6040518060c00160405280600073ffffffffffffffffffffffffffffffffffffffff16815260200160008152602001600081526020016000815260200160008152602001600015158152509056fea265627a7a723158205e04906efb3f2ae8553e6524bd5905adf739d0216406139647fef5a5e499692964736f6c634300050c0032",
  "source": "pragma solidity ^0.5.12;\nimport \"./DappToken.sol\";\nimport \"./calls.sol\";\n\n/*\n    To-Do\n    .) add a fouth parameter uint _limitPrice to marketSell and marketBuy to ensure price of contracts\n*/\n\n\n\n\ncontract collateral{\n    //total amount of locked collateral for each address\n    mapping(address => uint) public claimed;\n    \n    //stores price and hash of (maturity, stike, price)\n    struct linkedNode{\n        //offers[hash] is the offer\n        bytes32 hash;\n        //this == linkedNodes[name]\n        bytes32 name;\n        bytes32 next;\n        bytes32 previous;\n    }\n\n    struct Offer{\n        address payable offerer;\n        uint maturity;\n        uint strike;\n        uint price;\n        uint amount;\n        //if true this is a buy offer if false it is a sell offer\n        bool buy;\n    }\n    \n    event offerPosted(\n        bytes32 hash\n    );\n\n    //-----------mappings for marketplace functionality--------------\n    //maturity => strike => headNode.name\n    mapping(uint => mapping(uint => bytes32[2])) public listHeads;\n    \n    //holds all nodes\n    mapping (bytes32 => linkedNode) public linkedNodes;\n    \n    /*\n        Note all linkedNodes correspond to a buyOffer\n        The offers[linkedNodes[name].hash] links to a buyOffer\n    */\n    \n    //holds all offers\n    mapping(bytes32 => Offer) public offers;\n    //---------------END---------------------------------------------\n    \n    //address of outside token contract\n    address dappAddress;\n    address callsAddress;\n    //incrementing identifier for each order\n    uint public totalOrders;\n    //number of satoshis in one DappToken _fullUnit\n    uint satUnits;\n\n    uint public testing;\n    \n    constructor (address _dappAddress, address _callsAddress) public{\n        dappAddress = _dappAddress;\n        callsAddress = _callsAddress;\n        totalOrders = 1;\n        DappToken dt = DappToken(dappAddress);\n        satUnits = dt.satUnits();\n        dt.approve(callsAddress, 2**255, false);\n    }\n    \n    function postCollateral(uint _amount, bool _fullUnit) public returns(bool success){\n        DappToken dt = DappToken(dappAddress);\n        if (dt.transferFrom(msg.sender, address(this), _amount, _fullUnit)){\n            claimed[msg.sender]+=_amount*(_fullUnit ? satUnits : 1);\n            return true;\n        }\n        return false;\n    }\n    \n    function claimedCollateral(address _addr, bool _fullUnit) public view returns(uint){\n        return claimed[_addr]/(_fullUnit ? satUnits : 1);\n    }\n    \n    function withdrawCollateral(uint _value, bool _fullUnit) public returns(bool success){\n        DappToken dt = DappToken(dappAddress);\n        require(claimed[msg.sender]/(_fullUnit ? satUnits : 1) >= _value);\n        return dt.transfer(msg.sender, _value, _fullUnit);\n    }\n    \n    function withdrawMaxCollateral() public returns(bool success){\n        uint val = claimed[msg.sender];\n        require(val > 0);\n        DappToken dt = DappToken(dappAddress);\n        claimed[msg.sender] = 0;\n        return dt.transfer(msg.sender, val, false);\n    }\n    \n    //------The following set of functions relate to management of the marketplace\n    \n    //the output of this function for each offer is its identifier in the offers mapping\n    function orderHasher(Offer memory _offer) internal view returns(bytes32){\n        return keccak256(abi.encodePacked(_offer.maturity, _offer.strike, _offer.price, _offer.offerer, _offer.buy, now));\n    }\n    \n    //the output of this function for each linkedNode is its identifier in the linkedNodes mapping\n    function nodeHasher(bytes32 _offerHash) internal returns(bytes32){\n        totalOrders++;\n        return keccak256(abi.encodePacked(_offerHash, now, totalOrders));\n    }\n    \n    \n    //---------------------The following set of functions relates to buying and selling of contracts---------------------\n\n    function postBuy(uint _maturity, uint _strike, uint _price, uint _amount) public {\n        //require collateral\n        require(claimed[msg.sender] >= _price * _amount);\n        claimed[msg.sender] -= _price * _amount;\n        Offer memory offer = Offer(msg.sender, _maturity, _strike, _price, _amount, true);\n        //buyOffer identifier\n        bytes32 hash = orderHasher(offer);\n        //linkedNode identifier\n        bytes32 name = nodeHasher(hash);\n        offers[hash] = offer;\n        //set current node to the head node\n        linkedNode memory currentNode = linkedNodes[listHeads[_maturity][_strike][0]];\n        if (offers[currentNode.hash].price <= _price){\n            linkedNodes[name] = linkedNode(hash, name, currentNode.name, 0);\n            if (offers[currentNode.hash].price != 0){\n                linkedNodes[listHeads[_maturity][_strike][0]].previous = name;\n            }\n            listHeads[_maturity][_strike][0] = name;\n            emit offerPosted(hash);\n            return;\n        }\n        linkedNode memory previousNode;\n        while (currentNode.name != 0){\n            previousNode = currentNode;\n            currentNode = linkedNodes[currentNode.next];\n            if (offers[currentNode.hash].price <= _price){\n                break;\n            }\n        }\n        //if previous node is null this is the head node\n        if (offers[previousNode.hash].price == 0){\n            linkedNodes[name] = linkedNode(hash, name, currentNode.name, 0);\n            linkedNodes[currentNode.name].next = name;\n            emit offerPosted(hash);\n            return;\n        }\n        //if this is the last node\n        else if (currentNode.name == 0){\n            linkedNodes[name] = linkedNode(hash, name, 0, previousNode.name);\n            linkedNodes[currentNode.name].previous = name;\n            linkedNodes[previousNode.name].next = name;\n            emit offerPosted(hash);\n            return;\n        }\n        //it falls somewhere in the middle of the chain\n        else{\n            linkedNodes[name] = linkedNode(hash, name, currentNode.name, previousNode.name);\n            linkedNodes[currentNode.name].previous = name;\n            linkedNodes[previousNode.name].next = name;\n            emit offerPosted(hash);\n            return;\n        }\n    }\n    \n    function cancelBuy(bytes32 _name) public {\n        linkedNode memory node = linkedNodes[_name];\n        require(msg.sender == offers[node.hash].offerer && offers[node.hash].buy);\n        claimed[msg.sender] += offers[node.hash].price * offers[node.hash].amount;\n        //if this node is somewhere in the middle of the list\n        if (node.next != 0 && node.previous != 0){\n            linkedNodes[node.next].previous = node.previous;\n            linkedNodes[node.previous].next = node.next;\n            testing = 1;\n        }\n        //this is the only offer for the maturity and strike\n        else if (node.next == 0 && node.previous == 0){\n            delete listHeads[offers[node.hash].maturity][offers[node.hash].strike][0];\n            testing = 2;\n        }\n        //last node\n        else if (node.next == 0){\n            linkedNodes[node.previous].next = 0;\n            testing = 3;\n        }\n        //head node\n        else{\n            linkedNodes[node.next].previous = 0;\n            listHeads[offers[node.hash].maturity][offers[node.hash].strike][0] = node.next;\n            testing = 4;\n        }\n        delete linkedNodes[_name];\n        delete offers[node.hash];\n    }\n    \n    function takeBuyOffer(address payable _seller, bytes32 _name) internal {\n        DappToken dt = DappToken(dappAddress);\n        linkedNode memory node = linkedNodes[_name];\n        Offer memory offer = offers[node.hash];\n        testing = offer.maturity;\n        require(claimed[_seller] >= satUnits * offer.amount && _seller != offer.offerer && offer.buy);\n        claimed[_seller] -= satUnits * offer.amount;\n\n        if (node.next != 0 && node.previous != 0){\n            linkedNodes[node.next].previous = node.previous;\n            linkedNodes[node.previous].next = node.next;\n        }\n        //this is the only offer for the maturity and strike\n        else if (node.next == 0 && node.next == 0){\n            delete listHeads[offer.maturity][offer.strike][0];\n        }\n        //last node\n        else if (node.next == 0){\n            linkedNodes[node.previous].next = 0;\n        }\n        //head node\n        else{\n            linkedNodes[node.next].previous = 0;\n            listHeads[offer.maturity][offer.strike][0] = node.next;\n        }\n        \n        //now we make the trade happen\n        calls callContract = calls(callsAddress);\n        //dt.approve(callsAddress, satUnits, false);\n        //give the seller the amount paid\n        dt.transfer(_seller, offer.price, false);\n        assert(callContract.mint(_seller, offer.offerer, offer.maturity, offer.strike, offer.amount));\n        \n        //clean storage\n        delete linkedNodes[_name];\n        delete offers[node.hash];\n    }\n\n    function marketSell(uint _maturity, uint _strike, uint _amount) public {\n        DappToken dt = DappToken(dappAddress);\n        linkedNode memory node = linkedNodes[listHeads[_maturity][_strike][0]];\n        Offer memory offer = offers[node.hash];\n        require(claimed[msg.sender] >= satUnits * _amount && listHeads[_maturity][_strike][0] != 0 && msg.sender != offer.offerer);\n        //in each iteration we mint one contract\n        while (_amount > 0 && node.name != 0){\n            calls callContract = calls(callsAddress);\n            if (offer.amount > _amount){\n                require(callContract.mint(msg.sender, offer.offerer, offer.maturity, offer.strike, _amount));\n                claimed[msg.sender] -= satUnits * _amount;\n                offers[node.hash].amount -= _amount;\n                assert(dt.transfer(msg.sender, offer.price * _amount, false));\n                break;\n            }\n            _amount-=offer.amount;\n            takeBuyOffer(msg.sender, node.name);\n            //find the next offer\n            node = linkedNodes[listHeads[_maturity][_strike][0]];\n            offer = offers[node.hash];\n        }\n    }\n\n    function postSell(uint _maturity, uint _strike, uint _price, uint _amount) public {\n        //require collateral\n        require(claimed[msg.sender] >= satUnits * _amount && _price > 0);\n        claimed[msg.sender] -= satUnits * _amount;\n        Offer memory offer = Offer(msg.sender, _maturity, _strike, _price, _amount, false);\n        //sellOffer identifier\n        bytes32 hash = orderHasher(offer);\n        //linkedNode identifier\n        bytes32 name = nodeHasher(hash);\n        offers[hash] = offer;\n        //set current node to the head node\n        linkedNode memory currentNode = linkedNodes[listHeads[_maturity][_strike][1]];\n        if (offers[currentNode.hash].price==0 || offers[currentNode.hash].price >= _price){\n            linkedNodes[name] = linkedNode(hash, name, currentNode.name, 0);\n            if (offers[currentNode.hash].price != 0){\n                linkedNodes[listHeads[_maturity][_strike][1]].previous = name;\n            }\n            listHeads[_maturity][_strike][1] = name;\n            emit offerPosted(hash);\n            return;\n        }\n        linkedNode memory previousNode;\n        while (currentNode.name != 0){\n            previousNode = currentNode;\n            currentNode = linkedNodes[currentNode.next];\n            if (offers[currentNode.hash].price >= _price){\n                break;\n            }\n        }\n        //if previous node is null this is the head node\n        if (offers[previousNode.hash].price == 0){\n            linkedNodes[name] = linkedNode(hash, name, currentNode.name, 0);\n            linkedNodes[currentNode.name].next = name;\n            emit offerPosted(hash);\n            return;\n        }\n        //if this is the last node\n        else if (currentNode.name == 0){\n            linkedNodes[name] = linkedNode(hash, name, 0, previousNode.name);\n            linkedNodes[currentNode.name].previous = name;\n            linkedNodes[previousNode.name].next = name;\n            emit offerPosted(hash);\n            return;\n        }\n        //it falls somewhere in the middle of the chain\n        else{\n            linkedNodes[name] = linkedNode(hash, name, currentNode.name, previousNode.name);\n            linkedNodes[currentNode.name].previous = name;\n            linkedNodes[previousNode.name].next = name;\n            emit offerPosted(hash);\n            return;\n        }\n    }\n\n    function cancelSell(bytes32 _name) public {\n        linkedNode memory node = linkedNodes[_name];\n        require(msg.sender == offers[node.hash].offerer && !offers[node.hash].buy);\n        claimed[msg.sender] += satUnits * offers[node.hash].amount;\n        //if this node is somewhere in the middle of the list\n        if (node.next != 0 && node.previous != 0){\n            linkedNodes[node.next].previous = node.previous;\n            linkedNodes[node.previous].next = node.next;\n        }\n        //this is the only offer for the maturity and strike\n        else if (node.next == 0 && node.previous == 0){\n            delete listHeads[offers[node.hash].maturity][offers[node.hash].strike][1];\n        }\n        //last node\n        else if (node.next == 0){\n            linkedNodes[node.previous].next = 0;\n        }\n        //head node\n        else{\n            linkedNodes[node.next].previous = 0;\n            listHeads[offers[node.hash].maturity][offers[node.hash].strike][1] = node.next;\n        }\n        delete linkedNodes[_name];\n        delete offers[node.hash];  \n    }\n\n    function takeSellOffer(address payable _buyer, bytes32 _name) internal {\n        DappToken dt = DappToken(dappAddress);\n        linkedNode memory node = linkedNodes[_name];\n        Offer memory offer = offers[node.hash];\n        require(claimed[_buyer] >= offer.price * offer.amount && _buyer != offer.offerer && !offer.buy);\n        claimed[_buyer] -= offer.price * offer.amount;\n        if (node.next != 0 && node.previous != 0){\n            linkedNodes[node.next].previous = node.previous;\n            linkedNodes[node.previous].next = node.next;\n        }\n        //this is the only offer for the maturity and strike\n        else if (node.next == 0 && node.next == 0){\n            delete listHeads[offer.maturity][offer.strike][1];\n        }\n        //last node\n        else if (node.next == 0){\n            linkedNodes[node.previous].next = 0;\n        }\n        //head node\n        else{\n            linkedNodes[node.next].previous = 0;\n            listHeads[offer.maturity][offer.strike][1] = node.next;\n        }\n        \n        //now we make the trade happen\n        calls callContract = calls(callsAddress);\n        //give the seller the amount paid\n        dt.transfer(offer.offerer, offer.price, false);\n        assert(callContract.mint(offer.offerer, _buyer, offer.maturity, offer.strike, offer.amount));\n        \n        //clean storage\n        delete linkedNodes[_name];\n        delete offers[node.hash];\n    }\n\n    function marketBuy(uint _maturity, uint _strike, uint _amount) public {\n        linkedNode memory node = linkedNodes[listHeads[_maturity][_strike][1]];\n        Offer memory offer = offers[node.hash];\n        require(listHeads[_maturity][_strike][1] != 0 && msg.sender != offer.offerer);\n        //in each iteration we mint one contracts\n        while (_amount > 0 && node.name != 0 && claimed[msg.sender] >= offer.price){\n            calls callContract = calls(callsAddress);\n            if (offer.amount > _amount){\n                require(claimed[msg.sender] >= offer.price * _amount);\n                claimed[msg.sender] -= offer.price * _amount;\n                assert(callContract.mint(offer.offerer, msg.sender, offer.maturity, offer.strike, _amount));\n                offers[node.hash].amount -= _amount;\n                break;\n            }\n            _amount-=offer.amount;\n            takeSellOffer(msg.sender, node.name);\n            //find the next offer\n            node = linkedNodes[listHeads[_maturity][_strike][1]];\n            offer = offers[node.hash];\n        }\n    }\n}",
  "sourcePath": "/home/chimi/Desktop/truffleWorkspace/feldmex/contracts/collateral.sol",
  "compiler": {
    "name": "solc",
    "version": "0.5.12+commit.7709ece9.Emscripten.clang"
  },
  "schemaVersion": "3.0.19",
  "updatedAt": "2019-12-19T19:27:16.046Z",
  "networkType": "ethereum",
  "devdoc": {
    "methods": {}
  },
  "userdoc": {
    "methods": {}
  }
}