{
  "contractName": "oracle",
  "abi": [
    {
      "constant": false,
      "inputs": [
        {
          "internalType": "uint256",
          "name": "_btceth",
          "type": "uint256"
        }
      ],
      "name": "set",
      "outputs": [],
      "payable": false,
      "stateMutability": "nonpayable",
      "type": "function"
    },
    {
      "constant": true,
      "inputs": [],
      "name": "get",
      "outputs": [
        {
          "internalType": "uint256",
          "name": "",
          "type": "uint256"
        }
      ],
      "payable": false,
      "stateMutability": "view",
      "type": "function"
    },
    {
      "constant": true,
      "inputs": [],
      "name": "height",
      "outputs": [
        {
          "internalType": "uint256",
          "name": "",
          "type": "uint256"
        }
      ],
      "payable": false,
      "stateMutability": "view",
      "type": "function"
    }
  ],
  "bytecode": "0x608060405234801561001057600080fd5b5060f48061001f6000396000f3fe6080604052348015600f57600080fd5b5060043610603c5760003560e01c80630ef2674314604157806360fe47b114605d5780636d4ce63c146088575b600080fd5b604760a4565b6040518082815260200191505060405180910390f35b608660048036036020811015607157600080fd5b810190808035906020019092919050505060ac565b005b608e60b6565b6040518082815260200191505060405180910390f35b600043905090565b8060008190555050565b6000805490509056fea265627a7a72315820c978cfb93da126d3de3f6c94a6ed5a59128e0612725026462fcd774af843a33664736f6c634300050c0032",
  "source": "pragma solidity ^0.5.12;\n\ncontract oracle{\n    uint btceth;\n    \n    function set(uint _btceth) public {\n        btceth = _btceth;\n    }\n    \n    function get() public view returns(uint) {\n        return btceth;\n    }\n    \n    function height() public view returns(uint){\n        return block.number;\n    }\n}",
  "sourcePath": "/home/chimi/Desktop/truffleWorkspace/call1/contracts/oracle.sol",
  "compiler": {
    "name": "solc",
    "version": "0.5.12+commit.7709ece9.Emscripten.clang"
  },
  "schemaVersion": "3.0.18",
  "updatedAt": "2019-12-11T04:45:05.268Z",
  "networkType": "ethereum",
  "devdoc": {
    "methods": {}
  },
  "userdoc": {
    "methods": {}
  }
}