{
  "contractName": "oracle",
  "abi": [
    {
      "constant": true,
      "inputs": [
        {
          "internalType": "uint256",
          "name": "",
          "type": "uint256"
        }
      ],
      "name": "spots",
      "outputs": [
        {
          "internalType": "uint256",
          "name": "",
          "type": "uint256"
        }
      ],
      "payable": false,
      "stateMutability": "view",
      "type": "function"
    },
    {
      "constant": false,
      "inputs": [
        {
          "internalType": "uint256",
          "name": "_btceth",
          "type": "uint256"
        }
      ],
      "name": "set",
      "outputs": [],
      "payable": false,
      "stateMutability": "nonpayable",
      "type": "function"
    },
    {
      "constant": true,
      "inputs": [],
      "name": "get",
      "outputs": [
        {
          "internalType": "uint256",
          "name": "",
          "type": "uint256"
        }
      ],
      "payable": false,
      "stateMutability": "view",
      "type": "function"
    },
    {
      "constant": true,
      "inputs": [
        {
          "internalType": "uint256",
          "name": "height",
          "type": "uint256"
        }
      ],
      "name": "getUint",
      "outputs": [
        {
          "internalType": "uint256",
          "name": "",
          "type": "uint256"
        }
      ],
      "payable": false,
      "stateMutability": "view",
      "type": "function"
    },
    {
      "constant": true,
      "inputs": [],
      "name": "height",
      "outputs": [
        {
          "internalType": "uint256",
          "name": "",
          "type": "uint256"
        }
      ],
      "payable": false,
      "stateMutability": "view",
      "type": "function"
    }
  ],
  "bytecode": "0x608060405234801561001057600080fd5b50610227806100206000396000f3fe608060405234801561001057600080fd5b50600436106100575760003560e01c80630ef267431461005c578063145a8bdf1461007a57806360fe47b1146100bc5780636d4ce63c146100ea578063a9c70eaa14610108575b600080fd5b61006461014a565b6040518082815260200191505060405180910390f35b6100a66004803603602081101561009057600080fd5b8101908080359060200190929190505050610152565b6040518082815260200191505060405180910390f35b6100e8600480360360208110156100d257600080fd5b810190808035906020019092919050505061016a565b005b6100f261018e565b6040518082815260200191505060405180910390f35b6101346004803603602081101561011e57600080fd5b8101908080359060200190929190505050610197565b6040518082815260200191505060405180910390f35b600043905090565b60016020528060005260406000206000915090505481565b80600081905550600054600160004381526020019081526020016000208190555050565b60008054905090565b60005b60018211156101e8576000600160008481526020019081526020016000205411156101da57600160008381526020019081526020016000205490506101ed565b81806001900392505061019a565b600090505b91905056fea265627a7a723158204a8855d04bda9ce2f961c838eadddaa815578eb3a6a0be40493a1b401ffc0b8264736f6c634300050c0032",
  "source": "pragma solidity ^0.5.12;\n\ncontract oracle{\n    uint btceth;\n    \n    //height => price\n    mapping(uint => uint) public spots;\n\n    function set(uint _btceth) public {\n        btceth = _btceth;\n        spots[block.number] = btceth;\n    }\n    \n    function get() public view returns(uint) {\n        return btceth;\n    }\n    \n    function getUint(uint height) public view returns(uint){\n        while (height > 1){\n            if (spots[height] > 0)\n                return spots[height];\n            height--;\n        }\n        return 0;\n    }\n\n    function height() public view returns(uint){\n        return block.number;\n    }\n\n}",
  "sourcePath": "/home/chimi/Desktop/truffleWorkspace/feldmex/contracts/oracle.sol",
  "compiler": {
    "name": "solc",
    "version": "0.5.12+commit.7709ece9.Emscripten.clang"
  },
  "schemaVersion": "3.0.19",
  "updatedAt": "2019-12-19T03:48:05.380Z",
  "networkType": "ethereum",
  "devdoc": {
    "methods": {}
  },
  "userdoc": {
    "methods": {}
  }
}